{
  "contracts/CoinFlip.sol": {
    "CoinFlip": {
      "abi": [
        {
          "inputs": [],
          "stateMutability": "nonpayable",
          "type": "constructor"
        },
        {
          "anonymous": false,
          "inputs": [
            {
              "indexed": true,
              "internalType": "address",
              "name": "player",
              "type": "address"
            },
            {
              "indexed": false,
              "internalType": "uint256",
              "name": "bet",
              "type": "uint256"
            },
            {
              "indexed": false,
              "internalType": "uint256",
              "name": "choice",
              "type": "uint256"
            },
            {
              "indexed": false,
              "internalType": "bytes32",
              "name": "seed",
              "type": "bytes32"
            }
          ],
          "name": "GameCreated",
          "type": "event"
        },
        {
          "anonymous": false,
          "inputs": [
            {
              "indexed": true,
              "internalType": "address",
              "name": "player",
              "type": "address"
            },
            {
              "indexed": false,
              "internalType": "uint256",
              "name": "bet",
              "type": "uint256"
            },
            {
              "indexed": false,
              "internalType": "uint256",
              "name": "prize",
              "type": "uint256"
            },
            {
              "indexed": false,
              "internalType": "uint256",
              "name": "choice",
              "type": "uint256"
            },
            {
              "indexed": false,
              "internalType": "uint256",
              "name": "result",
              "type": "uint256"
            },
            {
              "indexed": true,
              "internalType": "bytes32",
              "name": "seed",
              "type": "bytes32"
            },
            {
              "indexed": false,
              "internalType": "enum CoinFlip.GameState",
              "name": "state",
              "type": "uint8"
            }
          ],
          "name": "GamePlayed",
          "type": "event"
        },
        {
          "anonymous": false,
          "inputs": [
            {
              "indexed": true,
              "internalType": "address",
              "name": "previousOwner",
              "type": "address"
            },
            {
              "indexed": true,
              "internalType": "address",
              "name": "newOwner",
              "type": "address"
            }
          ],
          "name": "OwnershipTransferred",
          "type": "event"
        },
        {
          "stateMutability": "nonpayable",
          "type": "fallback"
        },
        {
          "inputs": [],
          "name": "WIN_COEFFICIENT",
          "outputs": [
            {
              "internalType": "uint256",
              "name": "",
              "type": "uint256"
            }
          ],
          "stateMutability": "view",
          "type": "function"
        },
        {
          "inputs": [
            {
              "internalType": "bytes32",
              "name": "_seed",
              "type": "bytes32"
            },
            {
              "internalType": "uint8",
              "name": "_v",
              "type": "uint8"
            },
            {
              "internalType": "bytes32",
              "name": "_r",
              "type": "bytes32"
            },
            {
              "internalType": "bytes32",
              "name": "_s",
              "type": "bytes32"
            }
          ],
          "name": "confirm",
          "outputs": [],
          "stateMutability": "nonpayable",
          "type": "function"
        },
        {
          "inputs": [],
          "name": "croupier",
          "outputs": [
            {
              "internalType": "address",
              "name": "",
              "type": "address"
            }
          ],
          "stateMutability": "view",
          "type": "function"
        },
        {
          "inputs": [
            {
              "internalType": "bytes32",
              "name": "",
              "type": "bytes32"
            }
          ],
          "name": "games",
          "outputs": [
            {
              "internalType": "uint256",
              "name": "id",
              "type": "uint256"
            },
            {
              "internalType": "address payable",
              "name": "player",
              "type": "address"
            },
            {
              "internalType": "uint256",
              "name": "bet",
              "type": "uint256"
            },
            {
              "internalType": "uint256",
              "name": "prize",
              "type": "uint256"
            },
            {
              "internalType": "uint256",
              "name": "choice",
              "type": "uint256"
            },
            {
              "internalType": "uint256",
              "name": "result",
              "type": "uint256"
            },
            {
              "internalType": "enum CoinFlip.GameState",
              "name": "state",
              "type": "uint8"
            }
          ],
          "stateMutability": "view",
          "type": "function"
        },
        {
          "inputs": [],
          "name": "houseProfitEther",
          "outputs": [
            {
              "internalType": "int256",
              "name": "",
              "type": "int256"
            }
          ],
          "stateMutability": "view",
          "type": "function"
        },
        {
          "inputs": [
            {
              "internalType": "uint256",
              "name": "",
              "type": "uint256"
            }
          ],
          "name": "listGames",
          "outputs": [
            {
              "internalType": "bytes32",
              "name": "",
              "type": "bytes32"
            }
          ],
          "stateMutability": "view",
          "type": "function"
        },
        {
          "inputs": [],
          "name": "maxEtherBet",
          "outputs": [
            {
              "internalType": "uint256",
              "name": "",
              "type": "uint256"
            }
          ],
          "stateMutability": "view",
          "type": "function"
        },
        {
          "inputs": [],
          "name": "minEtherBet",
          "outputs": [
            {
              "internalType": "uint256",
              "name": "",
              "type": "uint256"
            }
          ],
          "stateMutability": "view",
          "type": "function"
        },
        {
          "inputs": [],
          "name": "owner",
          "outputs": [
            {
              "internalType": "address",
              "name": "",
              "type": "address"
            }
          ],
          "stateMutability": "view",
          "type": "function"
        },
        {
          "inputs": [
            {
              "internalType": "uint256",
              "name": "_choice",
              "type": "uint256"
            },
            {
              "internalType": "bytes32",
              "name": "_seed",
              "type": "bytes32"
            }
          ],
          "name": "play",
          "outputs": [],
          "stateMutability": "payable",
          "type": "function"
        },
        {
          "inputs": [],
          "name": "profitTaker",
          "outputs": [
            {
              "internalType": "address",
              "name": "",
              "type": "address"
            }
          ],
          "stateMutability": "view",
          "type": "function"
        },
        {
          "inputs": [],
          "name": "renounceOwnership",
          "outputs": [],
          "stateMutability": "nonpayable",
          "type": "function"
        },
        {
          "inputs": [
            {
              "internalType": "uint256",
              "name": "_min",
              "type": "uint256"
            },
            {
              "internalType": "uint256",
              "name": "_max",
              "type": "uint256"
            }
          ],
          "name": "setBetRange",
          "outputs": [],
          "stateMutability": "nonpayable",
          "type": "function"
        },
        {
          "inputs": [
            {
              "internalType": "address",
              "name": "_croupier",
              "type": "address"
            }
          ],
          "name": "setCroupier",
          "outputs": [],
          "stateMutability": "nonpayable",
          "type": "function"
        },
        {
          "inputs": [
            {
              "internalType": "address",
              "name": "_profitTaker",
              "type": "address"
            }
          ],
          "name": "setProfitTaker",
          "outputs": [],
          "stateMutability": "nonpayable",
          "type": "function"
        },
        {
          "inputs": [
            {
              "internalType": "uint256",
              "name": "amount",
              "type": "uint256"
            }
          ],
          "name": "setWinCoefficient",
          "outputs": [
            {
              "internalType": "uint256",
              "name": "",
              "type": "uint256"
            }
          ],
          "stateMutability": "nonpayable",
          "type": "function"
        },
        {
          "inputs": [],
          "name": "takeProfit",
          "outputs": [],
          "stateMutability": "nonpayable",
          "type": "function"
        },
        {
          "inputs": [],
          "name": "totalGamesCount",
          "outputs": [
            {
              "internalType": "uint256",
              "name": "",
              "type": "uint256"
            }
          ],
          "stateMutability": "view",
          "type": "function"
        },
        {
          "inputs": [
            {
              "internalType": "address",
              "name": "newOwner",
              "type": "address"
            }
          ],
          "name": "transferOwnership",
          "outputs": [],
          "stateMutability": "nonpayable",
          "type": "function"
        },
        {
          "inputs": [],
          "name": "withdraw",
          "outputs": [],
          "stateMutability": "nonpayable",
          "type": "function"
        },
        {
          "stateMutability": "payable",
          "type": "receive"
        }
      ],
      "devdoc": {
        "kind": "dev",
        "methods": {
          "confirm(bytes32,uint8,bytes32,bytes32)": {
            "params": {
              "_seed": ": Uniqual value for each game"
            }
          },
          "owner()": {
            "details": "Returns the address of the current owner."
          },
          "play(uint256,bytes32)": {
            "params": {
              "_seed": ": Uniqual value for each game"
            }
          },
          "renounceOwnership()": {
            "details": "Leaves the contract without owner. It will not be possible to call `onlyOwner` functions anymore. Can only be called by the current owner. NOTE: Renouncing ownership will leave the contract without an owner, thereby removing any functionality that is only available to the owner."
          },
          "setBetRange(uint256,uint256)": {
            "params": {
              "_max": ": New maxEtherBet",
              "_min": ": New minEtherBet"
            }
          },
          "setCroupier(address)": {
            "params": {
              "_croupier": ": New croupier"
            }
          },
          "setProfitTaker(address)": {
            "params": {
              "_profitTaker": ": New profitTaker"
            }
          },
          "setWinCoefficient(uint256)": {
            "params": {
              "amount": ": New WIN_COEFFICIENT"
            }
          },
          "transferOwnership(address)": {
            "details": "Transfers ownership of the contract to a new account (`newOwner`). Can only be called by the current owner."
          }
        },
        "version": 1
      },
      "evm": {
        "bytecode": {
          "linkReferences": {},
          "object": "608060405260c360025567016345785d8a0000600355678ac7230489e8000060045534801561002d57600080fd5b5061004a61003f6100d160201b60201c565b6100d960201b60201c565b33600660006101000a81548173ffffffffffffffffffffffffffffffffffffffff021916908373ffffffffffffffffffffffffffffffffffffffff16021790555033600760006101000a81548173ffffffffffffffffffffffffffffffffffffffff021916908373ffffffffffffffffffffffffffffffffffffffff16021790555061019d565b600033905090565b60008060009054906101000a900473ffffffffffffffffffffffffffffffffffffffff169050816000806101000a81548173ffffffffffffffffffffffffffffffffffffffff021916908373ffffffffffffffffffffffffffffffffffffffff1602179055508173ffffffffffffffffffffffffffffffffffffffff168173ffffffffffffffffffffffffffffffffffffffff167f8be0079c531659141344cd1fd0a4f28419497f9722a3daafe3b4186f6b6457e060405160405180910390a35050565b6121cf80620001ad6000396000f3fe6080604052600436106101235760003560e01c80638da5cb5b116100a0578063f2fde38b11610064578063f2fde38b14610391578063f579f882146103ba578063f593a387146103fd578063f8bb201c14610428578063f957eff2146104515761012a565b80638da5cb5b146102bb57806390e50774146102e6578063abae505014610323578063b00606a51461034c578063bf4bd002146103755761012a565b80636b5c5f39116100e75780636b5c5f391461020e57806370c1057814610239578063715018a61461025057806372215373146102675780638bc4aab2146102905761012a565b806322728b11146101395780633ccfd60b146101645780635b49637e1461017b5780635c6c0939146101a657806365fe09d7146101d15761012a565b3661012a57005b34801561013657600080fd5b50005b34801561014557600080fd5b5061014e61047c565b60405161015b91906119d2565b60405180910390f35b34801561017057600080fd5b50610179610482565b005b34801561018757600080fd5b506101906105ba565b60405161019d91906119d2565b60405180910390f35b3480156101b257600080fd5b506101bb6105c0565b6040516101c891906117fc565b60405180910390f35b3480156101dd57600080fd5b506101f860048036038101906101f39190611518565b6105e6565b6040516102059190611817565b60405180910390f35b34801561021a57600080fd5b5061022361060a565b60405161023091906117fc565b60405180910390f35b34801561024557600080fd5b5061024e610630565b005b34801561025c57600080fd5b50610265610741565b005b34801561027357600080fd5b5061028e60048036038101906102899190611457565b6107c9565b005b34801561029c57600080fd5b506102a5610889565b6040516102b29190611877565b60405180910390f35b3480156102c757600080fd5b506102d061088f565b6040516102dd91906117fc565b60405180910390f35b3480156102f257600080fd5b5061030d60048036038101906103089190611518565b6108b8565b60405161031a91906119d2565b60405180910390f35b34801561032f57600080fd5b5061034a60048036038101906103459190611585565b610947565b005b34801561035857600080fd5b50610373600480360381019061036e91906114b1565b6109d5565b005b61038f600480360381019061038a9190611545565b610e22565b005b34801561039d57600080fd5b506103b860048036038101906103b39190611457565b611104565b005b3480156103c657600080fd5b506103e160048036038101906103dc9190611484565b6111fc565b6040516103f497969594939291906119ed565b60405180910390f35b34801561040957600080fd5b5061041261126b565b60405161041f91906119d2565b60405180910390f35b34801561043457600080fd5b5061044f600480360381019061044a9190611457565b611271565b005b34801561045d57600080fd5b50610466611331565b60405161047391906119d2565b60405180910390f35b60035481565b61048a611337565b73ffffffffffffffffffffffffffffffffffffffff166104a861088f565b73ffffffffffffffffffffffffffffffffffffffff16146104fe576040517f08c379a00000000000000000000000000000000000000000000000000000000081526004016104f590611932565b60405180910390fd5b600060055413156105695761051161088f565b73ffffffffffffffffffffffffffffffffffffffff166108fc600554476105389190611cc0565b9081150290604051600060405180830381858888f19350505050158015610563573d6000803e3d6000fd5b506105b8565b61057161088f565b73ffffffffffffffffffffffffffffffffffffffff166108fc479081150290604051600060405180830381858888f193505050501580156105b6573d6000803e3d6000fd5b505b565b60045481565b600760009054906101000a900473ffffffffffffffffffffffffffffffffffffffff1681565b600981815481106105f657600080fd5b906000526020600020016000915090505481565b600660009054906101000a900473ffffffffffffffffffffffffffffffffffffffff1681565b600760009054906101000a900473ffffffffffffffffffffffffffffffffffffffff1673ffffffffffffffffffffffffffffffffffffffff163373ffffffffffffffffffffffffffffffffffffffff16146106c0576040517f08c379a00000000000000000000000000000000000000000000000000000000081526004016106b7906119b2565b60405180910390fd5b6000600554131561073f57600760009054906101000a900473ffffffffffffffffffffffffffffffffffffffff1673ffffffffffffffffffffffffffffffffffffffff166108fc6005549081150290604051600060405180830381858888f19350505050158015610735573d6000803e3d6000fd5b5060006005819055505b565b610749611337565b73ffffffffffffffffffffffffffffffffffffffff1661076761088f565b73ffffffffffffffffffffffffffffffffffffffff16146107bd576040517f08c379a00000000000000000000000000000000000000000000000000000000081526004016107b490611932565b60405180910390fd5b6107c7600061133f565b565b6107d1611337565b73ffffffffffffffffffffffffffffffffffffffff166107ef61088f565b73ffffffffffffffffffffffffffffffffffffffff1614610845576040517f08c379a000000000000000000000000000000000000000000000000000000000815260040161083c90611932565b60405180910390fd5b80600760006101000a81548173ffffffffffffffffffffffffffffffffffffffff021916908373ffffffffffffffffffffffffffffffffffffffff16021790555050565b60055481565b60008060009054906101000a900473ffffffffffffffffffffffffffffffffffffffff16905090565b60006108c2611337565b73ffffffffffffffffffffffffffffffffffffffff166108e061088f565b73ffffffffffffffffffffffffffffffffffffffff1614610936576040517f08c379a000000000000000000000000000000000000000000000000000000000815260040161092d90611932565b60405180910390fd5b816002819055506002549050919050565b61094f611337565b73ffffffffffffffffffffffffffffffffffffffff1661096d61088f565b73ffffffffffffffffffffffffffffffffffffffff16146109c3576040517f08c379a00000000000000000000000000000000000000000000000000000000081526004016109ba90611932565b60405180910390fd5b81600381905550806004819055505050565b600660009054906101000a900473ffffffffffffffffffffffffffffffffffffffff1673ffffffffffffffffffffffffffffffffffffffff163373ffffffffffffffffffffffffffffffffffffffff1614610a65576040517f08c379a0000000000000000000000000000000000000000000000000000000008152600401610a5c90611952565b60405180910390fd5b600060086000868152602001908152602001600020905060006002811115610a9057610a8f611e9d565b5b8160060160009054906101000a900460ff166002811115610ab457610ab3611e9d565b5b14610af4576040517f08c379a0000000000000000000000000000000000000000000000000000000008152600401610aeb90611912565b60405180910390fd5b60006040518060400160405280601c81526020017f19457468657265756d205369676e6564204d6573736167653a0a333200000000815250905060008187604051602001610b439291906117d4565b604051602081830303815290604052805190602001209050600660009054906101000a900473ffffffffffffffffffffffffffffffffffffffff1673ffffffffffffffffffffffffffffffffffffffff1660018288888860405160008152602001604052604051610bb79493929190611832565b6020604051602081039080840390855afa158015610bd9573d6000803e3d6000fd5b5050506020604051035173ffffffffffffffffffffffffffffffffffffffff1614610c39576040517f08c379a0000000000000000000000000000000000000000000000000000000008152600401610c30906118d2565b60405180910390fd5b60028460001c610c499190611e0e565b8360050181905550826005015483600401541415610d455760646002548460020154610c759190611bd2565b610c7f9190611ba1565b836003018190555060018360060160006101000a81548160ff02191690836002811115610caf57610cae611e9d565b5b0217905550826003015460056000828254610cca9190611c2c565b925050819055508260010160009054906101000a900473ffffffffffffffffffffffffffffffffffffffff1673ffffffffffffffffffffffffffffffffffffffff166108fc84600301549081150290604051600060405180830381858888f19350505050158015610d3f573d6000803e3d6000fd5b50610d7d565b6000836003018190555060028360060160006101000a81548160ff02191690836002811115610d7757610d76611e9d565b5b02179055505b868360010160009054906101000a900473ffffffffffffffffffffffffffffffffffffffff1673ffffffffffffffffffffffffffffffffffffffff167f66a277eae08be005534c699a6a8bb8d6130423996a074a37936859d78dab29b985600201548660030154876004015488600501548960060160009054906101000a900460ff16604051610e11959493929190611a93565b60405180910390a350505050505050565b3460035411158015610e3657506004543411155b610e75576040517f08c379a0000000000000000000000000000000000000000000000000000000008152600401610e6c90611892565b60405180910390fd5b806000600860008381526020019081526020016000206000015414610ecf576040517f08c379a0000000000000000000000000000000000000000000000000000000008152600401610ec690611992565b60405180910390fd5b6000831480610ede5750600183145b610f1d576040517f08c379a0000000000000000000000000000000000000000000000000000000008152600401610f14906118f2565b60405180910390fd5b6000606460025434610f2f9190611bd2565b610f399190611ba1565b9050478110610f7d576040517f08c379a0000000000000000000000000000000000000000000000000000000008152600401610f7490611972565b60405180910390fd5b600060086000858152602001908152602001600020905060016000815480929190610fa790611dbb565b91905055506001548160000181905550338160010160006101000a81548173ffffffffffffffffffffffffffffffffffffffff021916908373ffffffffffffffffffffffffffffffffffffffff16021790555034816002018190555084816004018190555060008160060160006101000a81548160ff0219169083600281111561103457611033611e9d565b5b021790555080600201546005600082825461104f9190611b0d565b9250508190555060098490806001815401808255809150506001900390600052602060002001600090919091909150558060010160009054906101000a900473ffffffffffffffffffffffffffffffffffffffff1673ffffffffffffffffffffffffffffffffffffffff167f0b67fb309cd70de956ad131734cbf3dcf23c78aa040b81ad1f7974defdfa511c82600201548360040154876040516110f593929190611a5c565b60405180910390a25050505050565b61110c611337565b73ffffffffffffffffffffffffffffffffffffffff1661112a61088f565b73ffffffffffffffffffffffffffffffffffffffff1614611180576040517f08c379a000000000000000000000000000000000000000000000000000000000815260040161117790611932565b60405180910390fd5b600073ffffffffffffffffffffffffffffffffffffffff168173ffffffffffffffffffffffffffffffffffffffff1614156111f0576040517f08c379a00000000000000000000000000000000000000000000000000000000081526004016111e7906118b2565b60405180910390fd5b6111f98161133f565b50565b60086020528060005260406000206000915090508060000154908060010160009054906101000a900473ffffffffffffffffffffffffffffffffffffffff16908060020154908060030154908060040154908060050154908060060160009054906101000a900460ff16905087565b60015481565b611279611337565b73ffffffffffffffffffffffffffffffffffffffff1661129761088f565b73ffffffffffffffffffffffffffffffffffffffff16146112ed576040517f08c379a00000000000000000000000000000000000000000000000000000000081526004016112e490611932565b60405180910390fd5b80600660006101000a81548173ffffffffffffffffffffffffffffffffffffffff021916908373ffffffffffffffffffffffffffffffffffffffff16021790555050565b60025481565b600033905090565b60008060009054906101000a900473ffffffffffffffffffffffffffffffffffffffff169050816000806101000a81548173ffffffffffffffffffffffffffffffffffffffff021916908373ffffffffffffffffffffffffffffffffffffffff1602179055508173ffffffffffffffffffffffffffffffffffffffff168173ffffffffffffffffffffffffffffffffffffffff167f8be0079c531659141344cd1fd0a4f28419497f9722a3daafe3b4186f6b6457e060405160405180910390a35050565b6000813590506114128161213d565b92915050565b60008135905061142781612154565b92915050565b60008135905061143c8161216b565b92915050565b60008135905061145181612182565b92915050565b60006020828403121561146d5761146c611ecc565b5b600061147b84828501611403565b91505092915050565b60006020828403121561149a57611499611ecc565b5b60006114a884828501611418565b91505092915050565b600080600080608085870312156114cb576114ca611ecc565b5b60006114d987828801611418565b94505060206114ea87828801611442565b93505060406114fb87828801611418565b925050606061150c87828801611418565b91505092959194509250565b60006020828403121561152e5761152d611ecc565b5b600061153c8482850161142d565b91505092915050565b6000806040838503121561155c5761155b611ecc565b5b600061156a8582860161142d565b925050602061157b85828601611418565b9150509250929050565b6000806040838503121561159c5761159b611ecc565b5b60006115aa8582860161142d565b92505060206115bb8582860161142d565b9150509250929050565b6115ce81611d06565b82525050565b6115dd81611cf4565b82525050565b6115ec81611d18565b82525050565b6116036115fe82611d18565b611e04565b82525050565b600061161482611ae6565b61161e8185611af1565b935061162e818560208601611d88565b80840191505092915050565b61164381611d76565b82525050565b61165281611d35565b82525050565b6000611665602383611afc565b915061167082611ed1565b604082019050919050565b6000611688602683611afc565b915061169382611f20565b604082019050919050565b60006116ab601183611afc565b91506116b682611f6f565b602082019050919050565b60006116ce601783611afc565b91506116d982611f98565b602082019050919050565b60006116f1601383611afc565b91506116fc82611fc1565b602082019050919050565b6000611714602083611afc565b915061171f82611fea565b602082019050919050565b6000611737602883611afc565b915061174282612013565b604082019050919050565b600061175a602e83611afc565b915061176582612062565b604082019050919050565b600061177d601183611afc565b9150611788826120b1565b602082019050919050565b60006117a0602c83611afc565b91506117ab826120da565b604082019050919050565b6117bf81611d5f565b82525050565b6117ce81611d69565b82525050565b60006117e08285611609565b91506117ec82846115f2565b6020820191508190509392505050565b600060208201905061181160008301846115d4565b92915050565b600060208201905061182c60008301846115e3565b92915050565b600060808201905061184760008301876115e3565b61185460208301866117c5565b61186160408301856115e3565b61186e60608301846115e3565b95945050505050565b600060208201905061188c6000830184611649565b92915050565b600060208201905081810360008301526118ab81611658565b9050919050565b600060208201905081810360008301526118cb8161167b565b9050919050565b600060208201905081810360008301526118eb8161169e565b9050919050565b6000602082019050818103600083015261190b816116c1565b9050919050565b6000602082019050818103600083015261192b816116e4565b9050919050565b6000602082019050818103600083015261194b81611707565b9050919050565b6000602082019050818103600083015261196b8161172a565b9050919050565b6000602082019050818103600083015261198b8161174d565b9050919050565b600060208201905081810360008301526119ab81611770565b9050919050565b600060208201905081810360008301526119cb81611793565b9050919050565b60006020820190506119e760008301846117b6565b92915050565b600060e082019050611a02600083018a6117b6565b611a0f60208301896115c5565b611a1c60408301886117b6565b611a2960608301876117b6565b611a3660808301866117b6565b611a4360a08301856117b6565b611a5060c083018461163a565b98975050505050505050565b6000606082019050611a7160008301866117b6565b611a7e60208301856117b6565b611a8b60408301846115e3565b949350505050565b600060a082019050611aa860008301886117b6565b611ab560208301876117b6565b611ac260408301866117b6565b611acf60608301856117b6565b611adc608083018461163a565b9695505050505050565b600081519050919050565b600081905092915050565b600082825260208201905092915050565b6000611b1882611d35565b9150611b2383611d35565b9250817f7fffffffffffffffffffffffffffffffffffffffffffffffffffffffffffffff03831360008312151615611b5e57611b5d611e3f565b5b817f8000000000000000000000000000000000000000000000000000000000000000038312600083121615611b9657611b95611e3f565b5b828201905092915050565b6000611bac82611d5f565b9150611bb783611d5f565b925082611bc757611bc6611e6e565b5b828204905092915050565b6000611bdd82611d5f565b9150611be883611d5f565b9250817fffffffffffffffffffffffffffffffffffffffffffffffffffffffffffffffff0483118215151615611c2157611c20611e3f565b5b828202905092915050565b6000611c3782611d35565b9150611c4283611d35565b9250827f800000000000000000000000000000000000000000000000000000000000000001821260008412151615611c7d57611c7c611e3f565b5b827f7fffffffffffffffffffffffffffffffffffffffffffffffffffffffffffffff018213600084121615611cb557611cb4611e3f565b5b828203905092915050565b6000611ccb82611d5f565b9150611cd683611d5f565b925082821015611ce957611ce8611e3f565b5b828203905092915050565b6000611cff82611d3f565b9050919050565b6000611d1182611d3f565b9050919050565b6000819050919050565b6000819050611d3082612129565b919050565b6000819050919050565b600073ffffffffffffffffffffffffffffffffffffffff82169050919050565b6000819050919050565b600060ff82169050919050565b6000611d8182611d22565b9050919050565b60005b83811015611da6578082015181840152602081019050611d8b565b83811115611db5576000848401525b50505050565b6000611dc682611d5f565b91507fffffffffffffffffffffffffffffffffffffffffffffffffffffffffffffffff821415611df957611df8611e3f565b5b600182019050919050565b6000819050919050565b6000611e1982611d5f565b9150611e2483611d5f565b925082611e3457611e33611e6e565b5b828206905092915050565b7f4e487b7100000000000000000000000000000000000000000000000000000000600052601160045260246000fd5b7f4e487b7100000000000000000000000000000000000000000000000000000000600052601260045260246000fd5b7f4e487b7100000000000000000000000000000000000000000000000000000000600052602160045260246000fd5b600080fd5b7f52617465206973206e6f74206265747765656e206d696e20616e64206d61782060008201527f6265740000000000000000000000000000000000000000000000000000000000602082015250565b7f4f776e61626c653a206e6577206f776e657220697320746865207a65726f206160008201527f6464726573730000000000000000000000000000000000000000000000000000602082015250565b7f496e76616c6964207369676e6174757265000000000000000000000000000000600082015250565b7f43686f6963652073686f756c642062652030206f722031000000000000000000600082015250565b7f47616d6520616c726561647920706c6179656400000000000000000000000000600082015250565b7f4f776e61626c653a2063616c6c6572206973206e6f7420746865206f776e6572600082015250565b7f4f6e6c79207468652063726f75706965722063616e2072756e2074686973206660008201527f756e6374696f6e2e000000000000000000000000000000000000000000000000602082015250565b7f496e737566666963656e742066756e6473206f6e20636f6e747261637420746f60008201527f20636f7665722074686520626574000000000000000000000000000000000000602082015250565b7f5365656420616c72656164792075736564000000000000000000000000000000600082015250565b7f4f6e6c79207468652070726f6669742074616b65722063616e2072756e20746860008201527f69732066756e6374696f6e2e0000000000000000000000000000000000000000602082015250565b6003811061213a57612139611e9d565b5b50565b61214681611cf4565b811461215157600080fd5b50565b61215d81611d18565b811461216857600080fd5b50565b61217481611d5f565b811461217f57600080fd5b50565b61218b81611d69565b811461219657600080fd5b5056fea2646970667358221220a9725cc9f6afe5b045c27d66cda22b21807898f5d5358839129f15047229806c64736f6c63430008060033",
          "opcodes": "PUSH1 0x80 PUSH1 0x40 MSTORE PUSH1 0xC3 PUSH1 0x2 SSTORE PUSH8 0x16345785D8A0000 PUSH1 0x3 SSTORE PUSH8 0x8AC7230489E80000 PUSH1 0x4 SSTORE CALLVALUE DUP1 ISZERO PUSH2 0x2D JUMPI PUSH1 0x0 DUP1 REVERT JUMPDEST POP PUSH2 0x4A PUSH2 0x3F PUSH2 0xD1 PUSH1 0x20 SHL PUSH1 0x20 SHR JUMP JUMPDEST PUSH2 0xD9 PUSH1 0x20 SHL PUSH1 0x20 SHR JUMP JUMPDEST CALLER PUSH1 0x6 PUSH1 0x0 PUSH2 0x100 EXP DUP2 SLOAD DUP2 PUSH20 0xFFFFFFFFFFFFFFFFFFFFFFFFFFFFFFFFFFFFFFFF MUL NOT AND SWAP1 DUP4 PUSH20 0xFFFFFFFFFFFFFFFFFFFFFFFFFFFFFFFFFFFFFFFF AND MUL OR SWAP1 SSTORE POP CALLER PUSH1 0x7 PUSH1 0x0 PUSH2 0x100 EXP DUP2 SLOAD DUP2 PUSH20 0xFFFFFFFFFFFFFFFFFFFFFFFFFFFFFFFFFFFFFFFF MUL NOT AND SWAP1 DUP4 PUSH20 0xFFFFFFFFFFFFFFFFFFFFFFFFFFFFFFFFFFFFFFFF AND MUL OR SWAP1 SSTORE POP PUSH2 0x19D JUMP JUMPDEST PUSH1 0x0 CALLER SWAP1 POP SWAP1 JUMP JUMPDEST PUSH1 0x0 DUP1 PUSH1 0x0 SWAP1 SLOAD SWAP1 PUSH2 0x100 EXP SWAP1 DIV PUSH20 0xFFFFFFFFFFFFFFFFFFFFFFFFFFFFFFFFFFFFFFFF AND SWAP1 POP DUP2 PUSH1 0x0 DUP1 PUSH2 0x100 EXP DUP2 SLOAD DUP2 PUSH20 0xFFFFFFFFFFFFFFFFFFFFFFFFFFFFFFFFFFFFFFFF MUL NOT AND SWAP1 DUP4 PUSH20 0xFFFFFFFFFFFFFFFFFFFFFFFFFFFFFFFFFFFFFFFF AND MUL OR SWAP1 SSTORE POP DUP2 PUSH20 0xFFFFFFFFFFFFFFFFFFFFFFFFFFFFFFFFFFFFFFFF AND DUP2 PUSH20 0xFFFFFFFFFFFFFFFFFFFFFFFFFFFFFFFFFFFFFFFF AND PUSH32 0x8BE0079C531659141344CD1FD0A4F28419497F9722A3DAAFE3B4186F6B6457E0 PUSH1 0x40 MLOAD PUSH1 0x40 MLOAD DUP1 SWAP2 SUB SWAP1 LOG3 POP POP JUMP JUMPDEST PUSH2 0x21CF DUP1 PUSH3 0x1AD PUSH1 0x0 CODECOPY PUSH1 0x0 RETURN INVALID PUSH1 0x80 PUSH1 0x40 MSTORE PUSH1 0x4 CALLDATASIZE LT PUSH2 0x123 JUMPI PUSH1 0x0 CALLDATALOAD PUSH1 0xE0 SHR DUP1 PUSH4 0x8DA5CB5B GT PUSH2 0xA0 JUMPI DUP1 PUSH4 0xF2FDE38B GT PUSH2 0x64 JUMPI DUP1 PUSH4 0xF2FDE38B EQ PUSH2 0x391 JUMPI DUP1 PUSH4 0xF579F882 EQ PUSH2 0x3BA JUMPI DUP1 PUSH4 0xF593A387 EQ PUSH2 0x3FD JUMPI DUP1 PUSH4 0xF8BB201C EQ PUSH2 0x428 JUMPI DUP1 PUSH4 0xF957EFF2 EQ PUSH2 0x451 JUMPI PUSH2 0x12A JUMP JUMPDEST DUP1 PUSH4 0x8DA5CB5B EQ PUSH2 0x2BB JUMPI DUP1 PUSH4 0x90E50774 EQ PUSH2 0x2E6 JUMPI DUP1 PUSH4 0xABAE5050 EQ PUSH2 0x323 JUMPI DUP1 PUSH4 0xB00606A5 EQ PUSH2 0x34C JUMPI DUP1 PUSH4 0xBF4BD002 EQ PUSH2 0x375 JUMPI PUSH2 0x12A JUMP JUMPDEST DUP1 PUSH4 0x6B5C5F39 GT PUSH2 0xE7 JUMPI DUP1 PUSH4 0x6B5C5F39 EQ PUSH2 0x20E JUMPI DUP1 PUSH4 0x70C10578 EQ PUSH2 0x239 JUMPI DUP1 PUSH4 0x715018A6 EQ PUSH2 0x250 JUMPI DUP1 PUSH4 0x72215373 EQ PUSH2 0x267 JUMPI DUP1 PUSH4 0x8BC4AAB2 EQ PUSH2 0x290 JUMPI PUSH2 0x12A JUMP JUMPDEST DUP1 PUSH4 0x22728B11 EQ PUSH2 0x139 JUMPI DUP1 PUSH4 0x3CCFD60B EQ PUSH2 0x164 JUMPI DUP1 PUSH4 0x5B49637E EQ PUSH2 0x17B JUMPI DUP1 PUSH4 0x5C6C0939 EQ PUSH2 0x1A6 JUMPI DUP1 PUSH4 0x65FE09D7 EQ PUSH2 0x1D1 JUMPI PUSH2 0x12A JUMP JUMPDEST CALLDATASIZE PUSH2 0x12A JUMPI STOP JUMPDEST CALLVALUE DUP1 ISZERO PUSH2 0x136 JUMPI PUSH1 0x0 DUP1 REVERT JUMPDEST POP STOP JUMPDEST CALLVALUE DUP1 ISZERO PUSH2 0x145 JUMPI PUSH1 0x0 DUP1 REVERT JUMPDEST POP PUSH2 0x14E PUSH2 0x47C JUMP JUMPDEST PUSH1 0x40 MLOAD PUSH2 0x15B SWAP2 SWAP1 PUSH2 0x19D2 JUMP JUMPDEST PUSH1 0x40 MLOAD DUP1 SWAP2 SUB SWAP1 RETURN JUMPDEST CALLVALUE DUP1 ISZERO PUSH2 0x170 JUMPI PUSH1 0x0 DUP1 REVERT JUMPDEST POP PUSH2 0x179 PUSH2 0x482 JUMP JUMPDEST STOP JUMPDEST CALLVALUE DUP1 ISZERO PUSH2 0x187 JUMPI PUSH1 0x0 DUP1 REVERT JUMPDEST POP PUSH2 0x190 PUSH2 0x5BA JUMP JUMPDEST PUSH1 0x40 MLOAD PUSH2 0x19D SWAP2 SWAP1 PUSH2 0x19D2 JUMP JUMPDEST PUSH1 0x40 MLOAD DUP1 SWAP2 SUB SWAP1 RETURN JUMPDEST CALLVALUE DUP1 ISZERO PUSH2 0x1B2 JUMPI PUSH1 0x0 DUP1 REVERT JUMPDEST POP PUSH2 0x1BB PUSH2 0x5C0 JUMP JUMPDEST PUSH1 0x40 MLOAD PUSH2 0x1C8 SWAP2 SWAP1 PUSH2 0x17FC JUMP JUMPDEST PUSH1 0x40 MLOAD DUP1 SWAP2 SUB SWAP1 RETURN JUMPDEST CALLVALUE DUP1 ISZERO PUSH2 0x1DD JUMPI PUSH1 0x0 DUP1 REVERT JUMPDEST POP PUSH2 0x1F8 PUSH1 0x4 DUP1 CALLDATASIZE SUB DUP2 ADD SWAP1 PUSH2 0x1F3 SWAP2 SWAP1 PUSH2 0x1518 JUMP JUMPDEST PUSH2 0x5E6 JUMP JUMPDEST PUSH1 0x40 MLOAD PUSH2 0x205 SWAP2 SWAP1 PUSH2 0x1817 JUMP JUMPDEST PUSH1 0x40 MLOAD DUP1 SWAP2 SUB SWAP1 RETURN JUMPDEST CALLVALUE DUP1 ISZERO PUSH2 0x21A JUMPI PUSH1 0x0 DUP1 REVERT JUMPDEST POP PUSH2 0x223 PUSH2 0x60A JUMP JUMPDEST PUSH1 0x40 MLOAD PUSH2 0x230 SWAP2 SWAP1 PUSH2 0x17FC JUMP JUMPDEST PUSH1 0x40 MLOAD DUP1 SWAP2 SUB SWAP1 RETURN JUMPDEST CALLVALUE DUP1 ISZERO PUSH2 0x245 JUMPI PUSH1 0x0 DUP1 REVERT JUMPDEST POP PUSH2 0x24E PUSH2 0x630 JUMP JUMPDEST STOP JUMPDEST CALLVALUE DUP1 ISZERO PUSH2 0x25C JUMPI PUSH1 0x0 DUP1 REVERT JUMPDEST POP PUSH2 0x265 PUSH2 0x741 JUMP JUMPDEST STOP JUMPDEST CALLVALUE DUP1 ISZERO PUSH2 0x273 JUMPI PUSH1 0x0 DUP1 REVERT JUMPDEST POP PUSH2 0x28E PUSH1 0x4 DUP1 CALLDATASIZE SUB DUP2 ADD SWAP1 PUSH2 0x289 SWAP2 SWAP1 PUSH2 0x1457 JUMP JUMPDEST PUSH2 0x7C9 JUMP JUMPDEST STOP JUMPDEST CALLVALUE DUP1 ISZERO PUSH2 0x29C JUMPI PUSH1 0x0 DUP1 REVERT JUMPDEST POP PUSH2 0x2A5 PUSH2 0x889 JUMP JUMPDEST PUSH1 0x40 MLOAD PUSH2 0x2B2 SWAP2 SWAP1 PUSH2 0x1877 JUMP JUMPDEST PUSH1 0x40 MLOAD DUP1 SWAP2 SUB SWAP1 RETURN JUMPDEST CALLVALUE DUP1 ISZERO PUSH2 0x2C7 JUMPI PUSH1 0x0 DUP1 REVERT JUMPDEST POP PUSH2 0x2D0 PUSH2 0x88F JUMP JUMPDEST PUSH1 0x40 MLOAD PUSH2 0x2DD SWAP2 SWAP1 PUSH2 0x17FC JUMP JUMPDEST PUSH1 0x40 MLOAD DUP1 SWAP2 SUB SWAP1 RETURN JUMPDEST CALLVALUE DUP1 ISZERO PUSH2 0x2F2 JUMPI PUSH1 0x0 DUP1 REVERT JUMPDEST POP PUSH2 0x30D PUSH1 0x4 DUP1 CALLDATASIZE SUB DUP2 ADD SWAP1 PUSH2 0x308 SWAP2 SWAP1 PUSH2 0x1518 JUMP JUMPDEST PUSH2 0x8B8 JUMP JUMPDEST PUSH1 0x40 MLOAD PUSH2 0x31A SWAP2 SWAP1 PUSH2 0x19D2 JUMP JUMPDEST PUSH1 0x40 MLOAD DUP1 SWAP2 SUB SWAP1 RETURN JUMPDEST CALLVALUE DUP1 ISZERO PUSH2 0x32F JUMPI PUSH1 0x0 DUP1 REVERT JUMPDEST POP PUSH2 0x34A PUSH1 0x4 DUP1 CALLDATASIZE SUB DUP2 ADD SWAP1 PUSH2 0x345 SWAP2 SWAP1 PUSH2 0x1585 JUMP JUMPDEST PUSH2 0x947 JUMP JUMPDEST STOP JUMPDEST CALLVALUE DUP1 ISZERO PUSH2 0x358 JUMPI PUSH1 0x0 DUP1 REVERT JUMPDEST POP PUSH2 0x373 PUSH1 0x4 DUP1 CALLDATASIZE SUB DUP2 ADD SWAP1 PUSH2 0x36E SWAP2 SWAP1 PUSH2 0x14B1 JUMP JUMPDEST PUSH2 0x9D5 JUMP JUMPDEST STOP JUMPDEST PUSH2 0x38F PUSH1 0x4 DUP1 CALLDATASIZE SUB DUP2 ADD SWAP1 PUSH2 0x38A SWAP2 SWAP1 PUSH2 0x1545 JUMP JUMPDEST PUSH2 0xE22 JUMP JUMPDEST STOP JUMPDEST CALLVALUE DUP1 ISZERO PUSH2 0x39D JUMPI PUSH1 0x0 DUP1 REVERT JUMPDEST POP PUSH2 0x3B8 PUSH1 0x4 DUP1 CALLDATASIZE SUB DUP2 ADD SWAP1 PUSH2 0x3B3 SWAP2 SWAP1 PUSH2 0x1457 JUMP JUMPDEST PUSH2 0x1104 JUMP JUMPDEST STOP JUMPDEST CALLVALUE DUP1 ISZERO PUSH2 0x3C6 JUMPI PUSH1 0x0 DUP1 REVERT JUMPDEST POP PUSH2 0x3E1 PUSH1 0x4 DUP1 CALLDATASIZE SUB DUP2 ADD SWAP1 PUSH2 0x3DC SWAP2 SWAP1 PUSH2 0x1484 JUMP JUMPDEST PUSH2 0x11FC JUMP JUMPDEST PUSH1 0x40 MLOAD PUSH2 0x3F4 SWAP8 SWAP7 SWAP6 SWAP5 SWAP4 SWAP3 SWAP2 SWAP1 PUSH2 0x19ED JUMP JUMPDEST PUSH1 0x40 MLOAD DUP1 SWAP2 SUB SWAP1 RETURN JUMPDEST CALLVALUE DUP1 ISZERO PUSH2 0x409 JUMPI PUSH1 0x0 DUP1 REVERT JUMPDEST POP PUSH2 0x412 PUSH2 0x126B JUMP JUMPDEST PUSH1 0x40 MLOAD PUSH2 0x41F SWAP2 SWAP1 PUSH2 0x19D2 JUMP JUMPDEST PUSH1 0x40 MLOAD DUP1 SWAP2 SUB SWAP1 RETURN JUMPDEST CALLVALUE DUP1 ISZERO PUSH2 0x434 JUMPI PUSH1 0x0 DUP1 REVERT JUMPDEST POP PUSH2 0x44F PUSH1 0x4 DUP1 CALLDATASIZE SUB DUP2 ADD SWAP1 PUSH2 0x44A SWAP2 SWAP1 PUSH2 0x1457 JUMP JUMPDEST PUSH2 0x1271 JUMP JUMPDEST STOP JUMPDEST CALLVALUE DUP1 ISZERO PUSH2 0x45D JUMPI PUSH1 0x0 DUP1 REVERT JUMPDEST POP PUSH2 0x466 PUSH2 0x1331 JUMP JUMPDEST PUSH1 0x40 MLOAD PUSH2 0x473 SWAP2 SWAP1 PUSH2 0x19D2 JUMP JUMPDEST PUSH1 0x40 MLOAD DUP1 SWAP2 SUB SWAP1 RETURN JUMPDEST PUSH1 0x3 SLOAD DUP2 JUMP JUMPDEST PUSH2 0x48A PUSH2 0x1337 JUMP JUMPDEST PUSH20 0xFFFFFFFFFFFFFFFFFFFFFFFFFFFFFFFFFFFFFFFF AND PUSH2 0x4A8 PUSH2 0x88F JUMP JUMPDEST PUSH20 0xFFFFFFFFFFFFFFFFFFFFFFFFFFFFFFFFFFFFFFFF AND EQ PUSH2 0x4FE JUMPI PUSH1 0x40 MLOAD PUSH32 0x8C379A000000000000000000000000000000000000000000000000000000000 DUP2 MSTORE PUSH1 0x4 ADD PUSH2 0x4F5 SWAP1 PUSH2 0x1932 JUMP JUMPDEST PUSH1 0x40 MLOAD DUP1 SWAP2 SUB SWAP1 REVERT JUMPDEST PUSH1 0x0 PUSH1 0x5 SLOAD SGT ISZERO PUSH2 0x569 JUMPI PUSH2 0x511 PUSH2 0x88F JUMP JUMPDEST PUSH20 0xFFFFFFFFFFFFFFFFFFFFFFFFFFFFFFFFFFFFFFFF AND PUSH2 0x8FC PUSH1 0x5 SLOAD SELFBALANCE PUSH2 0x538 SWAP2 SWAP1 PUSH2 0x1CC0 JUMP JUMPDEST SWAP1 DUP2 ISZERO MUL SWAP1 PUSH1 0x40 MLOAD PUSH1 0x0 PUSH1 0x40 MLOAD DUP1 DUP4 SUB DUP2 DUP6 DUP9 DUP9 CALL SWAP4 POP POP POP POP ISZERO DUP1 ISZERO PUSH2 0x563 JUMPI RETURNDATASIZE PUSH1 0x0 DUP1 RETURNDATACOPY RETURNDATASIZE PUSH1 0x0 REVERT JUMPDEST POP PUSH2 0x5B8 JUMP JUMPDEST PUSH2 0x571 PUSH2 0x88F JUMP JUMPDEST PUSH20 0xFFFFFFFFFFFFFFFFFFFFFFFFFFFFFFFFFFFFFFFF AND PUSH2 0x8FC SELFBALANCE SWAP1 DUP2 ISZERO MUL SWAP1 PUSH1 0x40 MLOAD PUSH1 0x0 PUSH1 0x40 MLOAD DUP1 DUP4 SUB DUP2 DUP6 DUP9 DUP9 CALL SWAP4 POP POP POP POP ISZERO DUP1 ISZERO PUSH2 0x5B6 JUMPI RETURNDATASIZE PUSH1 0x0 DUP1 RETURNDATACOPY RETURNDATASIZE PUSH1 0x0 REVERT JUMPDEST POP JUMPDEST JUMP JUMPDEST PUSH1 0x4 SLOAD DUP2 JUMP JUMPDEST PUSH1 0x7 PUSH1 0x0 SWAP1 SLOAD SWAP1 PUSH2 0x100 EXP SWAP1 DIV PUSH20 0xFFFFFFFFFFFFFFFFFFFFFFFFFFFFFFFFFFFFFFFF AND DUP2 JUMP JUMPDEST PUSH1 0x9 DUP2 DUP2 SLOAD DUP2 LT PUSH2 0x5F6 JUMPI PUSH1 0x0 DUP1 REVERT JUMPDEST SWAP1 PUSH1 0x0 MSTORE PUSH1 0x20 PUSH1 0x0 KECCAK256 ADD PUSH1 0x0 SWAP2 POP SWAP1 POP SLOAD DUP2 JUMP JUMPDEST PUSH1 0x6 PUSH1 0x0 SWAP1 SLOAD SWAP1 PUSH2 0x100 EXP SWAP1 DIV PUSH20 0xFFFFFFFFFFFFFFFFFFFFFFFFFFFFFFFFFFFFFFFF AND DUP2 JUMP JUMPDEST PUSH1 0x7 PUSH1 0x0 SWAP1 SLOAD SWAP1 PUSH2 0x100 EXP SWAP1 DIV PUSH20 0xFFFFFFFFFFFFFFFFFFFFFFFFFFFFFFFFFFFFFFFF AND PUSH20 0xFFFFFFFFFFFFFFFFFFFFFFFFFFFFFFFFFFFFFFFF AND CALLER PUSH20 0xFFFFFFFFFFFFFFFFFFFFFFFFFFFFFFFFFFFFFFFF AND EQ PUSH2 0x6C0 JUMPI PUSH1 0x40 MLOAD PUSH32 0x8C379A000000000000000000000000000000000000000000000000000000000 DUP2 MSTORE PUSH1 0x4 ADD PUSH2 0x6B7 SWAP1 PUSH2 0x19B2 JUMP JUMPDEST PUSH1 0x40 MLOAD DUP1 SWAP2 SUB SWAP1 REVERT JUMPDEST PUSH1 0x0 PUSH1 0x5 SLOAD SGT ISZERO PUSH2 0x73F JUMPI PUSH1 0x7 PUSH1 0x0 SWAP1 SLOAD SWAP1 PUSH2 0x100 EXP SWAP1 DIV PUSH20 0xFFFFFFFFFFFFFFFFFFFFFFFFFFFFFFFFFFFFFFFF AND PUSH20 0xFFFFFFFFFFFFFFFFFFFFFFFFFFFFFFFFFFFFFFFF AND PUSH2 0x8FC PUSH1 0x5 SLOAD SWAP1 DUP2 ISZERO MUL SWAP1 PUSH1 0x40 MLOAD PUSH1 0x0 PUSH1 0x40 MLOAD DUP1 DUP4 SUB DUP2 DUP6 DUP9 DUP9 CALL SWAP4 POP POP POP POP ISZERO DUP1 ISZERO PUSH2 0x735 JUMPI RETURNDATASIZE PUSH1 0x0 DUP1 RETURNDATACOPY RETURNDATASIZE PUSH1 0x0 REVERT JUMPDEST POP PUSH1 0x0 PUSH1 0x5 DUP2 SWAP1 SSTORE POP JUMPDEST JUMP JUMPDEST PUSH2 0x749 PUSH2 0x1337 JUMP JUMPDEST PUSH20 0xFFFFFFFFFFFFFFFFFFFFFFFFFFFFFFFFFFFFFFFF AND PUSH2 0x767 PUSH2 0x88F JUMP JUMPDEST PUSH20 0xFFFFFFFFFFFFFFFFFFFFFFFFFFFFFFFFFFFFFFFF AND EQ PUSH2 0x7BD JUMPI PUSH1 0x40 MLOAD PUSH32 0x8C379A000000000000000000000000000000000000000000000000000000000 DUP2 MSTORE PUSH1 0x4 ADD PUSH2 0x7B4 SWAP1 PUSH2 0x1932 JUMP JUMPDEST PUSH1 0x40 MLOAD DUP1 SWAP2 SUB SWAP1 REVERT JUMPDEST PUSH2 0x7C7 PUSH1 0x0 PUSH2 0x133F JUMP JUMPDEST JUMP JUMPDEST PUSH2 0x7D1 PUSH2 0x1337 JUMP JUMPDEST PUSH20 0xFFFFFFFFFFFFFFFFFFFFFFFFFFFFFFFFFFFFFFFF AND PUSH2 0x7EF PUSH2 0x88F JUMP JUMPDEST PUSH20 0xFFFFFFFFFFFFFFFFFFFFFFFFFFFFFFFFFFFFFFFF AND EQ PUSH2 0x845 JUMPI PUSH1 0x40 MLOAD PUSH32 0x8C379A000000000000000000000000000000000000000000000000000000000 DUP2 MSTORE PUSH1 0x4 ADD PUSH2 0x83C SWAP1 PUSH2 0x1932 JUMP JUMPDEST PUSH1 0x40 MLOAD DUP1 SWAP2 SUB SWAP1 REVERT JUMPDEST DUP1 PUSH1 0x7 PUSH1 0x0 PUSH2 0x100 EXP DUP2 SLOAD DUP2 PUSH20 0xFFFFFFFFFFFFFFFFFFFFFFFFFFFFFFFFFFFFFFFF MUL NOT AND SWAP1 DUP4 PUSH20 0xFFFFFFFFFFFFFFFFFFFFFFFFFFFFFFFFFFFFFFFF AND MUL OR SWAP1 SSTORE POP POP JUMP JUMPDEST PUSH1 0x5 SLOAD DUP2 JUMP JUMPDEST PUSH1 0x0 DUP1 PUSH1 0x0 SWAP1 SLOAD SWAP1 PUSH2 0x100 EXP SWAP1 DIV PUSH20 0xFFFFFFFFFFFFFFFFFFFFFFFFFFFFFFFFFFFFFFFF AND SWAP1 POP SWAP1 JUMP JUMPDEST PUSH1 0x0 PUSH2 0x8C2 PUSH2 0x1337 JUMP JUMPDEST PUSH20 0xFFFFFFFFFFFFFFFFFFFFFFFFFFFFFFFFFFFFFFFF AND PUSH2 0x8E0 PUSH2 0x88F JUMP JUMPDEST PUSH20 0xFFFFFFFFFFFFFFFFFFFFFFFFFFFFFFFFFFFFFFFF AND EQ PUSH2 0x936 JUMPI PUSH1 0x40 MLOAD PUSH32 0x8C379A000000000000000000000000000000000000000000000000000000000 DUP2 MSTORE PUSH1 0x4 ADD PUSH2 0x92D SWAP1 PUSH2 0x1932 JUMP JUMPDEST PUSH1 0x40 MLOAD DUP1 SWAP2 SUB SWAP1 REVERT JUMPDEST DUP2 PUSH1 0x2 DUP2 SWAP1 SSTORE POP PUSH1 0x2 SLOAD SWAP1 POP SWAP2 SWAP1 POP JUMP JUMPDEST PUSH2 0x94F PUSH2 0x1337 JUMP JUMPDEST PUSH20 0xFFFFFFFFFFFFFFFFFFFFFFFFFFFFFFFFFFFFFFFF AND PUSH2 0x96D PUSH2 0x88F JUMP JUMPDEST PUSH20 0xFFFFFFFFFFFFFFFFFFFFFFFFFFFFFFFFFFFFFFFF AND EQ PUSH2 0x9C3 JUMPI PUSH1 0x40 MLOAD PUSH32 0x8C379A000000000000000000000000000000000000000000000000000000000 DUP2 MSTORE PUSH1 0x4 ADD PUSH2 0x9BA SWAP1 PUSH2 0x1932 JUMP JUMPDEST PUSH1 0x40 MLOAD DUP1 SWAP2 SUB SWAP1 REVERT JUMPDEST DUP2 PUSH1 0x3 DUP2 SWAP1 SSTORE POP DUP1 PUSH1 0x4 DUP2 SWAP1 SSTORE POP POP POP JUMP JUMPDEST PUSH1 0x6 PUSH1 0x0 SWAP1 SLOAD SWAP1 PUSH2 0x100 EXP SWAP1 DIV PUSH20 0xFFFFFFFFFFFFFFFFFFFFFFFFFFFFFFFFFFFFFFFF AND PUSH20 0xFFFFFFFFFFFFFFFFFFFFFFFFFFFFFFFFFFFFFFFF AND CALLER PUSH20 0xFFFFFFFFFFFFFFFFFFFFFFFFFFFFFFFFFFFFFFFF AND EQ PUSH2 0xA65 JUMPI PUSH1 0x40 MLOAD PUSH32 0x8C379A000000000000000000000000000000000000000000000000000000000 DUP2 MSTORE PUSH1 0x4 ADD PUSH2 0xA5C SWAP1 PUSH2 0x1952 JUMP JUMPDEST PUSH1 0x40 MLOAD DUP1 SWAP2 SUB SWAP1 REVERT JUMPDEST PUSH1 0x0 PUSH1 0x8 PUSH1 0x0 DUP7 DUP2 MSTORE PUSH1 0x20 ADD SWAP1 DUP2 MSTORE PUSH1 0x20 ADD PUSH1 0x0 KECCAK256 SWAP1 POP PUSH1 0x0 PUSH1 0x2 DUP2 GT ISZERO PUSH2 0xA90 JUMPI PUSH2 0xA8F PUSH2 0x1E9D JUMP JUMPDEST JUMPDEST DUP2 PUSH1 0x6 ADD PUSH1 0x0 SWAP1 SLOAD SWAP1 PUSH2 0x100 EXP SWAP1 DIV PUSH1 0xFF AND PUSH1 0x2 DUP2 GT ISZERO PUSH2 0xAB4 JUMPI PUSH2 0xAB3 PUSH2 0x1E9D JUMP JUMPDEST JUMPDEST EQ PUSH2 0xAF4 JUMPI PUSH1 0x40 MLOAD PUSH32 0x8C379A000000000000000000000000000000000000000000000000000000000 DUP2 MSTORE PUSH1 0x4 ADD PUSH2 0xAEB SWAP1 PUSH2 0x1912 JUMP JUMPDEST PUSH1 0x40 MLOAD DUP1 SWAP2 SUB SWAP1 REVERT JUMPDEST PUSH1 0x0 PUSH1 0x40 MLOAD DUP1 PUSH1 0x40 ADD PUSH1 0x40 MSTORE DUP1 PUSH1 0x1C DUP2 MSTORE PUSH1 0x20 ADD PUSH32 0x19457468657265756D205369676E6564204D6573736167653A0A333200000000 DUP2 MSTORE POP SWAP1 POP PUSH1 0x0 DUP2 DUP8 PUSH1 0x40 MLOAD PUSH1 0x20 ADD PUSH2 0xB43 SWAP3 SWAP2 SWAP1 PUSH2 0x17D4 JUMP JUMPDEST PUSH1 0x40 MLOAD PUSH1 0x20 DUP2 DUP4 SUB SUB DUP2 MSTORE SWAP1 PUSH1 0x40 MSTORE DUP1 MLOAD SWAP1 PUSH1 0x20 ADD KECCAK256 SWAP1 POP PUSH1 0x6 PUSH1 0x0 SWAP1 SLOAD SWAP1 PUSH2 0x100 EXP SWAP1 DIV PUSH20 0xFFFFFFFFFFFFFFFFFFFFFFFFFFFFFFFFFFFFFFFF AND PUSH20 0xFFFFFFFFFFFFFFFFFFFFFFFFFFFFFFFFFFFFFFFF AND PUSH1 0x1 DUP3 DUP9 DUP9 DUP9 PUSH1 0x40 MLOAD PUSH1 0x0 DUP2 MSTORE PUSH1 0x20 ADD PUSH1 0x40 MSTORE PUSH1 0x40 MLOAD PUSH2 0xBB7 SWAP5 SWAP4 SWAP3 SWAP2 SWAP1 PUSH2 0x1832 JUMP JUMPDEST PUSH1 0x20 PUSH1 0x40 MLOAD PUSH1 0x20 DUP2 SUB SWAP1 DUP1 DUP5 SUB SWAP1 DUP6 GAS STATICCALL ISZERO DUP1 ISZERO PUSH2 0xBD9 JUMPI RETURNDATASIZE PUSH1 0x0 DUP1 RETURNDATACOPY RETURNDATASIZE PUSH1 0x0 REVERT JUMPDEST POP POP POP PUSH1 0x20 PUSH1 0x40 MLOAD SUB MLOAD PUSH20 0xFFFFFFFFFFFFFFFFFFFFFFFFFFFFFFFFFFFFFFFF AND EQ PUSH2 0xC39 JUMPI PUSH1 0x40 MLOAD PUSH32 0x8C379A000000000000000000000000000000000000000000000000000000000 DUP2 MSTORE PUSH1 0x4 ADD PUSH2 0xC30 SWAP1 PUSH2 0x18D2 JUMP JUMPDEST PUSH1 0x40 MLOAD DUP1 SWAP2 SUB SWAP1 REVERT JUMPDEST PUSH1 0x2 DUP5 PUSH1 0x0 SHR PUSH2 0xC49 SWAP2 SWAP1 PUSH2 0x1E0E JUMP JUMPDEST DUP4 PUSH1 0x5 ADD DUP2 SWAP1 SSTORE POP DUP3 PUSH1 0x5 ADD SLOAD DUP4 PUSH1 0x4 ADD SLOAD EQ ISZERO PUSH2 0xD45 JUMPI PUSH1 0x64 PUSH1 0x2 SLOAD DUP5 PUSH1 0x2 ADD SLOAD PUSH2 0xC75 SWAP2 SWAP1 PUSH2 0x1BD2 JUMP JUMPDEST PUSH2 0xC7F SWAP2 SWAP1 PUSH2 0x1BA1 JUMP JUMPDEST DUP4 PUSH1 0x3 ADD DUP2 SWAP1 SSTORE POP PUSH1 0x1 DUP4 PUSH1 0x6 ADD PUSH1 0x0 PUSH2 0x100 EXP DUP2 SLOAD DUP2 PUSH1 0xFF MUL NOT AND SWAP1 DUP4 PUSH1 0x2 DUP2 GT ISZERO PUSH2 0xCAF JUMPI PUSH2 0xCAE PUSH2 0x1E9D JUMP JUMPDEST JUMPDEST MUL OR SWAP1 SSTORE POP DUP3 PUSH1 0x3 ADD SLOAD PUSH1 0x5 PUSH1 0x0 DUP3 DUP3 SLOAD PUSH2 0xCCA SWAP2 SWAP1 PUSH2 0x1C2C JUMP JUMPDEST SWAP3 POP POP DUP2 SWAP1 SSTORE POP DUP3 PUSH1 0x1 ADD PUSH1 0x0 SWAP1 SLOAD SWAP1 PUSH2 0x100 EXP SWAP1 DIV PUSH20 0xFFFFFFFFFFFFFFFFFFFFFFFFFFFFFFFFFFFFFFFF AND PUSH20 0xFFFFFFFFFFFFFFFFFFFFFFFFFFFFFFFFFFFFFFFF AND PUSH2 0x8FC DUP5 PUSH1 0x3 ADD SLOAD SWAP1 DUP2 ISZERO MUL SWAP1 PUSH1 0x40 MLOAD PUSH1 0x0 PUSH1 0x40 MLOAD DUP1 DUP4 SUB DUP2 DUP6 DUP9 DUP9 CALL SWAP4 POP POP POP POP ISZERO DUP1 ISZERO PUSH2 0xD3F JUMPI RETURNDATASIZE PUSH1 0x0 DUP1 RETURNDATACOPY RETURNDATASIZE PUSH1 0x0 REVERT JUMPDEST POP PUSH2 0xD7D JUMP JUMPDEST PUSH1 0x0 DUP4 PUSH1 0x3 ADD DUP2 SWAP1 SSTORE POP PUSH1 0x2 DUP4 PUSH1 0x6 ADD PUSH1 0x0 PUSH2 0x100 EXP DUP2 SLOAD DUP2 PUSH1 0xFF MUL NOT AND SWAP1 DUP4 PUSH1 0x2 DUP2 GT ISZERO PUSH2 0xD77 JUMPI PUSH2 0xD76 PUSH2 0x1E9D JUMP JUMPDEST JUMPDEST MUL OR SWAP1 SSTORE POP JUMPDEST DUP7 DUP4 PUSH1 0x1 ADD PUSH1 0x0 SWAP1 SLOAD SWAP1 PUSH2 0x100 EXP SWAP1 DIV PUSH20 0xFFFFFFFFFFFFFFFFFFFFFFFFFFFFFFFFFFFFFFFF AND PUSH20 0xFFFFFFFFFFFFFFFFFFFFFFFFFFFFFFFFFFFFFFFF AND PUSH32 0x66A277EAE08BE005534C699A6A8BB8D6130423996A074A37936859D78DAB29B9 DUP6 PUSH1 0x2 ADD SLOAD DUP7 PUSH1 0x3 ADD SLOAD DUP8 PUSH1 0x4 ADD SLOAD DUP9 PUSH1 0x5 ADD SLOAD DUP10 PUSH1 0x6 ADD PUSH1 0x0 SWAP1 SLOAD SWAP1 PUSH2 0x100 EXP SWAP1 DIV PUSH1 0xFF AND PUSH1 0x40 MLOAD PUSH2 0xE11 SWAP6 SWAP5 SWAP4 SWAP3 SWAP2 SWAP1 PUSH2 0x1A93 JUMP JUMPDEST PUSH1 0x40 MLOAD DUP1 SWAP2 SUB SWAP1 LOG3 POP POP POP POP POP POP POP JUMP JUMPDEST CALLVALUE PUSH1 0x3 SLOAD GT ISZERO DUP1 ISZERO PUSH2 0xE36 JUMPI POP PUSH1 0x4 SLOAD CALLVALUE GT ISZERO JUMPDEST PUSH2 0xE75 JUMPI PUSH1 0x40 MLOAD PUSH32 0x8C379A000000000000000000000000000000000000000000000000000000000 DUP2 MSTORE PUSH1 0x4 ADD PUSH2 0xE6C SWAP1 PUSH2 0x1892 JUMP JUMPDEST PUSH1 0x40 MLOAD DUP1 SWAP2 SUB SWAP1 REVERT JUMPDEST DUP1 PUSH1 0x0 PUSH1 0x8 PUSH1 0x0 DUP4 DUP2 MSTORE PUSH1 0x20 ADD SWAP1 DUP2 MSTORE PUSH1 0x20 ADD PUSH1 0x0 KECCAK256 PUSH1 0x0 ADD SLOAD EQ PUSH2 0xECF JUMPI PUSH1 0x40 MLOAD PUSH32 0x8C379A000000000000000000000000000000000000000000000000000000000 DUP2 MSTORE PUSH1 0x4 ADD PUSH2 0xEC6 SWAP1 PUSH2 0x1992 JUMP JUMPDEST PUSH1 0x40 MLOAD DUP1 SWAP2 SUB SWAP1 REVERT JUMPDEST PUSH1 0x0 DUP4 EQ DUP1 PUSH2 0xEDE JUMPI POP PUSH1 0x1 DUP4 EQ JUMPDEST PUSH2 0xF1D JUMPI PUSH1 0x40 MLOAD PUSH32 0x8C379A000000000000000000000000000000000000000000000000000000000 DUP2 MSTORE PUSH1 0x4 ADD PUSH2 0xF14 SWAP1 PUSH2 0x18F2 JUMP JUMPDEST PUSH1 0x40 MLOAD DUP1 SWAP2 SUB SWAP1 REVERT JUMPDEST PUSH1 0x0 PUSH1 0x64 PUSH1 0x2 SLOAD CALLVALUE PUSH2 0xF2F SWAP2 SWAP1 PUSH2 0x1BD2 JUMP JUMPDEST PUSH2 0xF39 SWAP2 SWAP1 PUSH2 0x1BA1 JUMP JUMPDEST SWAP1 POP SELFBALANCE DUP2 LT PUSH2 0xF7D JUMPI PUSH1 0x40 MLOAD PUSH32 0x8C379A000000000000000000000000000000000000000000000000000000000 DUP2 MSTORE PUSH1 0x4 ADD PUSH2 0xF74 SWAP1 PUSH2 0x1972 JUMP JUMPDEST PUSH1 0x40 MLOAD DUP1 SWAP2 SUB SWAP1 REVERT JUMPDEST PUSH1 0x0 PUSH1 0x8 PUSH1 0x0 DUP6 DUP2 MSTORE PUSH1 0x20 ADD SWAP1 DUP2 MSTORE PUSH1 0x20 ADD PUSH1 0x0 KECCAK256 SWAP1 POP PUSH1 0x1 PUSH1 0x0 DUP2 SLOAD DUP1 SWAP3 SWAP2 SWAP1 PUSH2 0xFA7 SWAP1 PUSH2 0x1DBB JUMP JUMPDEST SWAP2 SWAP1 POP SSTORE POP PUSH1 0x1 SLOAD DUP2 PUSH1 0x0 ADD DUP2 SWAP1 SSTORE POP CALLER DUP2 PUSH1 0x1 ADD PUSH1 0x0 PUSH2 0x100 EXP DUP2 SLOAD DUP2 PUSH20 0xFFFFFFFFFFFFFFFFFFFFFFFFFFFFFFFFFFFFFFFF MUL NOT AND SWAP1 DUP4 PUSH20 0xFFFFFFFFFFFFFFFFFFFFFFFFFFFFFFFFFFFFFFFF AND MUL OR SWAP1 SSTORE POP CALLVALUE DUP2 PUSH1 0x2 ADD DUP2 SWAP1 SSTORE POP DUP5 DUP2 PUSH1 0x4 ADD DUP2 SWAP1 SSTORE POP PUSH1 0x0 DUP2 PUSH1 0x6 ADD PUSH1 0x0 PUSH2 0x100 EXP DUP2 SLOAD DUP2 PUSH1 0xFF MUL NOT AND SWAP1 DUP4 PUSH1 0x2 DUP2 GT ISZERO PUSH2 0x1034 JUMPI PUSH2 0x1033 PUSH2 0x1E9D JUMP JUMPDEST JUMPDEST MUL OR SWAP1 SSTORE POP DUP1 PUSH1 0x2 ADD SLOAD PUSH1 0x5 PUSH1 0x0 DUP3 DUP3 SLOAD PUSH2 0x104F SWAP2 SWAP1 PUSH2 0x1B0D JUMP JUMPDEST SWAP3 POP POP DUP2 SWAP1 SSTORE POP PUSH1 0x9 DUP5 SWAP1 DUP1 PUSH1 0x1 DUP2 SLOAD ADD DUP1 DUP3 SSTORE DUP1 SWAP2 POP POP PUSH1 0x1 SWAP1 SUB SWAP1 PUSH1 0x0 MSTORE PUSH1 0x20 PUSH1 0x0 KECCAK256 ADD PUSH1 0x0 SWAP1 SWAP2 SWAP1 SWAP2 SWAP1 SWAP2 POP SSTORE DUP1 PUSH1 0x1 ADD PUSH1 0x0 SWAP1 SLOAD SWAP1 PUSH2 0x100 EXP SWAP1 DIV PUSH20 0xFFFFFFFFFFFFFFFFFFFFFFFFFFFFFFFFFFFFFFFF AND PUSH20 0xFFFFFFFFFFFFFFFFFFFFFFFFFFFFFFFFFFFFFFFF AND PUSH32 0xB67FB309CD70DE956AD131734CBF3DCF23C78AA040B81AD1F7974DEFDFA511C DUP3 PUSH1 0x2 ADD SLOAD DUP4 PUSH1 0x4 ADD SLOAD DUP8 PUSH1 0x40 MLOAD PUSH2 0x10F5 SWAP4 SWAP3 SWAP2 SWAP1 PUSH2 0x1A5C JUMP JUMPDEST PUSH1 0x40 MLOAD DUP1 SWAP2 SUB SWAP1 LOG2 POP POP POP POP POP JUMP JUMPDEST PUSH2 0x110C PUSH2 0x1337 JUMP JUMPDEST PUSH20 0xFFFFFFFFFFFFFFFFFFFFFFFFFFFFFFFFFFFFFFFF AND PUSH2 0x112A PUSH2 0x88F JUMP JUMPDEST PUSH20 0xFFFFFFFFFFFFFFFFFFFFFFFFFFFFFFFFFFFFFFFF AND EQ PUSH2 0x1180 JUMPI PUSH1 0x40 MLOAD PUSH32 0x8C379A000000000000000000000000000000000000000000000000000000000 DUP2 MSTORE PUSH1 0x4 ADD PUSH2 0x1177 SWAP1 PUSH2 0x1932 JUMP JUMPDEST PUSH1 0x40 MLOAD DUP1 SWAP2 SUB SWAP1 REVERT JUMPDEST PUSH1 0x0 PUSH20 0xFFFFFFFFFFFFFFFFFFFFFFFFFFFFFFFFFFFFFFFF AND DUP2 PUSH20 0xFFFFFFFFFFFFFFFFFFFFFFFFFFFFFFFFFFFFFFFF AND EQ ISZERO PUSH2 0x11F0 JUMPI PUSH1 0x40 MLOAD PUSH32 0x8C379A000000000000000000000000000000000000000000000000000000000 DUP2 MSTORE PUSH1 0x4 ADD PUSH2 0x11E7 SWAP1 PUSH2 0x18B2 JUMP JUMPDEST PUSH1 0x40 MLOAD DUP1 SWAP2 SUB SWAP1 REVERT JUMPDEST PUSH2 0x11F9 DUP2 PUSH2 0x133F JUMP JUMPDEST POP JUMP JUMPDEST PUSH1 0x8 PUSH1 0x20 MSTORE DUP1 PUSH1 0x0 MSTORE PUSH1 0x40 PUSH1 0x0 KECCAK256 PUSH1 0x0 SWAP2 POP SWAP1 POP DUP1 PUSH1 0x0 ADD SLOAD SWAP1 DUP1 PUSH1 0x1 ADD PUSH1 0x0 SWAP1 SLOAD SWAP1 PUSH2 0x100 EXP SWAP1 DIV PUSH20 0xFFFFFFFFFFFFFFFFFFFFFFFFFFFFFFFFFFFFFFFF AND SWAP1 DUP1 PUSH1 0x2 ADD SLOAD SWAP1 DUP1 PUSH1 0x3 ADD SLOAD SWAP1 DUP1 PUSH1 0x4 ADD SLOAD SWAP1 DUP1 PUSH1 0x5 ADD SLOAD SWAP1 DUP1 PUSH1 0x6 ADD PUSH1 0x0 SWAP1 SLOAD SWAP1 PUSH2 0x100 EXP SWAP1 DIV PUSH1 0xFF AND SWAP1 POP DUP8 JUMP JUMPDEST PUSH1 0x1 SLOAD DUP2 JUMP JUMPDEST PUSH2 0x1279 PUSH2 0x1337 JUMP JUMPDEST PUSH20 0xFFFFFFFFFFFFFFFFFFFFFFFFFFFFFFFFFFFFFFFF AND PUSH2 0x1297 PUSH2 0x88F JUMP JUMPDEST PUSH20 0xFFFFFFFFFFFFFFFFFFFFFFFFFFFFFFFFFFFFFFFF AND EQ PUSH2 0x12ED JUMPI PUSH1 0x40 MLOAD PUSH32 0x8C379A000000000000000000000000000000000000000000000000000000000 DUP2 MSTORE PUSH1 0x4 ADD PUSH2 0x12E4 SWAP1 PUSH2 0x1932 JUMP JUMPDEST PUSH1 0x40 MLOAD DUP1 SWAP2 SUB SWAP1 REVERT JUMPDEST DUP1 PUSH1 0x6 PUSH1 0x0 PUSH2 0x100 EXP DUP2 SLOAD DUP2 PUSH20 0xFFFFFFFFFFFFFFFFFFFFFFFFFFFFFFFFFFFFFFFF MUL NOT AND SWAP1 DUP4 PUSH20 0xFFFFFFFFFFFFFFFFFFFFFFFFFFFFFFFFFFFFFFFF AND MUL OR SWAP1 SSTORE POP POP JUMP JUMPDEST PUSH1 0x2 SLOAD DUP2 JUMP JUMPDEST PUSH1 0x0 CALLER SWAP1 POP SWAP1 JUMP JUMPDEST PUSH1 0x0 DUP1 PUSH1 0x0 SWAP1 SLOAD SWAP1 PUSH2 0x100 EXP SWAP1 DIV PUSH20 0xFFFFFFFFFFFFFFFFFFFFFFFFFFFFFFFFFFFFFFFF AND SWAP1 POP DUP2 PUSH1 0x0 DUP1 PUSH2 0x100 EXP DUP2 SLOAD DUP2 PUSH20 0xFFFFFFFFFFFFFFFFFFFFFFFFFFFFFFFFFFFFFFFF MUL NOT AND SWAP1 DUP4 PUSH20 0xFFFFFFFFFFFFFFFFFFFFFFFFFFFFFFFFFFFFFFFF AND MUL OR SWAP1 SSTORE POP DUP2 PUSH20 0xFFFFFFFFFFFFFFFFFFFFFFFFFFFFFFFFFFFFFFFF AND DUP2 PUSH20 0xFFFFFFFFFFFFFFFFFFFFFFFFFFFFFFFFFFFFFFFF AND PUSH32 0x8BE0079C531659141344CD1FD0A4F28419497F9722A3DAAFE3B4186F6B6457E0 PUSH1 0x40 MLOAD PUSH1 0x40 MLOAD DUP1 SWAP2 SUB SWAP1 LOG3 POP POP JUMP JUMPDEST PUSH1 0x0 DUP2 CALLDATALOAD SWAP1 POP PUSH2 0x1412 DUP2 PUSH2 0x213D JUMP JUMPDEST SWAP3 SWAP2 POP POP JUMP JUMPDEST PUSH1 0x0 DUP2 CALLDATALOAD SWAP1 POP PUSH2 0x1427 DUP2 PUSH2 0x2154 JUMP JUMPDEST SWAP3 SWAP2 POP POP JUMP JUMPDEST PUSH1 0x0 DUP2 CALLDATALOAD SWAP1 POP PUSH2 0x143C DUP2 PUSH2 0x216B JUMP JUMPDEST SWAP3 SWAP2 POP POP JUMP JUMPDEST PUSH1 0x0 DUP2 CALLDATALOAD SWAP1 POP PUSH2 0x1451 DUP2 PUSH2 0x2182 JUMP JUMPDEST SWAP3 SWAP2 POP POP JUMP JUMPDEST PUSH1 0x0 PUSH1 0x20 DUP3 DUP5 SUB SLT ISZERO PUSH2 0x146D JUMPI PUSH2 0x146C PUSH2 0x1ECC JUMP JUMPDEST JUMPDEST PUSH1 0x0 PUSH2 0x147B DUP5 DUP3 DUP6 ADD PUSH2 0x1403 JUMP JUMPDEST SWAP2 POP POP SWAP3 SWAP2 POP POP JUMP JUMPDEST PUSH1 0x0 PUSH1 0x20 DUP3 DUP5 SUB SLT ISZERO PUSH2 0x149A JUMPI PUSH2 0x1499 PUSH2 0x1ECC JUMP JUMPDEST JUMPDEST PUSH1 0x0 PUSH2 0x14A8 DUP5 DUP3 DUP6 ADD PUSH2 0x1418 JUMP JUMPDEST SWAP2 POP POP SWAP3 SWAP2 POP POP JUMP JUMPDEST PUSH1 0x0 DUP1 PUSH1 0x0 DUP1 PUSH1 0x80 DUP6 DUP8 SUB SLT ISZERO PUSH2 0x14CB JUMPI PUSH2 0x14CA PUSH2 0x1ECC JUMP JUMPDEST JUMPDEST PUSH1 0x0 PUSH2 0x14D9 DUP8 DUP3 DUP9 ADD PUSH2 0x1418 JUMP JUMPDEST SWAP5 POP POP PUSH1 0x20 PUSH2 0x14EA DUP8 DUP3 DUP9 ADD PUSH2 0x1442 JUMP JUMPDEST SWAP4 POP POP PUSH1 0x40 PUSH2 0x14FB DUP8 DUP3 DUP9 ADD PUSH2 0x1418 JUMP JUMPDEST SWAP3 POP POP PUSH1 0x60 PUSH2 0x150C DUP8 DUP3 DUP9 ADD PUSH2 0x1418 JUMP JUMPDEST SWAP2 POP POP SWAP3 SWAP6 SWAP2 SWAP5 POP SWAP3 POP JUMP JUMPDEST PUSH1 0x0 PUSH1 0x20 DUP3 DUP5 SUB SLT ISZERO PUSH2 0x152E JUMPI PUSH2 0x152D PUSH2 0x1ECC JUMP JUMPDEST JUMPDEST PUSH1 0x0 PUSH2 0x153C DUP5 DUP3 DUP6 ADD PUSH2 0x142D JUMP JUMPDEST SWAP2 POP POP SWAP3 SWAP2 POP POP JUMP JUMPDEST PUSH1 0x0 DUP1 PUSH1 0x40 DUP4 DUP6 SUB SLT ISZERO PUSH2 0x155C JUMPI PUSH2 0x155B PUSH2 0x1ECC JUMP JUMPDEST JUMPDEST PUSH1 0x0 PUSH2 0x156A DUP6 DUP3 DUP7 ADD PUSH2 0x142D JUMP JUMPDEST SWAP3 POP POP PUSH1 0x20 PUSH2 0x157B DUP6 DUP3 DUP7 ADD PUSH2 0x1418 JUMP JUMPDEST SWAP2 POP POP SWAP3 POP SWAP3 SWAP1 POP JUMP JUMPDEST PUSH1 0x0 DUP1 PUSH1 0x40 DUP4 DUP6 SUB SLT ISZERO PUSH2 0x159C JUMPI PUSH2 0x159B PUSH2 0x1ECC JUMP JUMPDEST JUMPDEST PUSH1 0x0 PUSH2 0x15AA DUP6 DUP3 DUP7 ADD PUSH2 0x142D JUMP JUMPDEST SWAP3 POP POP PUSH1 0x20 PUSH2 0x15BB DUP6 DUP3 DUP7 ADD PUSH2 0x142D JUMP JUMPDEST SWAP2 POP POP SWAP3 POP SWAP3 SWAP1 POP JUMP JUMPDEST PUSH2 0x15CE DUP2 PUSH2 0x1D06 JUMP JUMPDEST DUP3 MSTORE POP POP JUMP JUMPDEST PUSH2 0x15DD DUP2 PUSH2 0x1CF4 JUMP JUMPDEST DUP3 MSTORE POP POP JUMP JUMPDEST PUSH2 0x15EC DUP2 PUSH2 0x1D18 JUMP JUMPDEST DUP3 MSTORE POP POP JUMP JUMPDEST PUSH2 0x1603 PUSH2 0x15FE DUP3 PUSH2 0x1D18 JUMP JUMPDEST PUSH2 0x1E04 JUMP JUMPDEST DUP3 MSTORE POP POP JUMP JUMPDEST PUSH1 0x0 PUSH2 0x1614 DUP3 PUSH2 0x1AE6 JUMP JUMPDEST PUSH2 0x161E DUP2 DUP6 PUSH2 0x1AF1 JUMP JUMPDEST SWAP4 POP PUSH2 0x162E DUP2 DUP6 PUSH1 0x20 DUP7 ADD PUSH2 0x1D88 JUMP JUMPDEST DUP1 DUP5 ADD SWAP2 POP POP SWAP3 SWAP2 POP POP JUMP JUMPDEST PUSH2 0x1643 DUP2 PUSH2 0x1D76 JUMP JUMPDEST DUP3 MSTORE POP POP JUMP JUMPDEST PUSH2 0x1652 DUP2 PUSH2 0x1D35 JUMP JUMPDEST DUP3 MSTORE POP POP JUMP JUMPDEST PUSH1 0x0 PUSH2 0x1665 PUSH1 0x23 DUP4 PUSH2 0x1AFC JUMP JUMPDEST SWAP2 POP PUSH2 0x1670 DUP3 PUSH2 0x1ED1 JUMP JUMPDEST PUSH1 0x40 DUP3 ADD SWAP1 POP SWAP2 SWAP1 POP JUMP JUMPDEST PUSH1 0x0 PUSH2 0x1688 PUSH1 0x26 DUP4 PUSH2 0x1AFC JUMP JUMPDEST SWAP2 POP PUSH2 0x1693 DUP3 PUSH2 0x1F20 JUMP JUMPDEST PUSH1 0x40 DUP3 ADD SWAP1 POP SWAP2 SWAP1 POP JUMP JUMPDEST PUSH1 0x0 PUSH2 0x16AB PUSH1 0x11 DUP4 PUSH2 0x1AFC JUMP JUMPDEST SWAP2 POP PUSH2 0x16B6 DUP3 PUSH2 0x1F6F JUMP JUMPDEST PUSH1 0x20 DUP3 ADD SWAP1 POP SWAP2 SWAP1 POP JUMP JUMPDEST PUSH1 0x0 PUSH2 0x16CE PUSH1 0x17 DUP4 PUSH2 0x1AFC JUMP JUMPDEST SWAP2 POP PUSH2 0x16D9 DUP3 PUSH2 0x1F98 JUMP JUMPDEST PUSH1 0x20 DUP3 ADD SWAP1 POP SWAP2 SWAP1 POP JUMP JUMPDEST PUSH1 0x0 PUSH2 0x16F1 PUSH1 0x13 DUP4 PUSH2 0x1AFC JUMP JUMPDEST SWAP2 POP PUSH2 0x16FC DUP3 PUSH2 0x1FC1 JUMP JUMPDEST PUSH1 0x20 DUP3 ADD SWAP1 POP SWAP2 SWAP1 POP JUMP JUMPDEST PUSH1 0x0 PUSH2 0x1714 PUSH1 0x20 DUP4 PUSH2 0x1AFC JUMP JUMPDEST SWAP2 POP PUSH2 0x171F DUP3 PUSH2 0x1FEA JUMP JUMPDEST PUSH1 0x20 DUP3 ADD SWAP1 POP SWAP2 SWAP1 POP JUMP JUMPDEST PUSH1 0x0 PUSH2 0x1737 PUSH1 0x28 DUP4 PUSH2 0x1AFC JUMP JUMPDEST SWAP2 POP PUSH2 0x1742 DUP3 PUSH2 0x2013 JUMP JUMPDEST PUSH1 0x40 DUP3 ADD SWAP1 POP SWAP2 SWAP1 POP JUMP JUMPDEST PUSH1 0x0 PUSH2 0x175A PUSH1 0x2E DUP4 PUSH2 0x1AFC JUMP JUMPDEST SWAP2 POP PUSH2 0x1765 DUP3 PUSH2 0x2062 JUMP JUMPDEST PUSH1 0x40 DUP3 ADD SWAP1 POP SWAP2 SWAP1 POP JUMP JUMPDEST PUSH1 0x0 PUSH2 0x177D PUSH1 0x11 DUP4 PUSH2 0x1AFC JUMP JUMPDEST SWAP2 POP PUSH2 0x1788 DUP3 PUSH2 0x20B1 JUMP JUMPDEST PUSH1 0x20 DUP3 ADD SWAP1 POP SWAP2 SWAP1 POP JUMP JUMPDEST PUSH1 0x0 PUSH2 0x17A0 PUSH1 0x2C DUP4 PUSH2 0x1AFC JUMP JUMPDEST SWAP2 POP PUSH2 0x17AB DUP3 PUSH2 0x20DA JUMP JUMPDEST PUSH1 0x40 DUP3 ADD SWAP1 POP SWAP2 SWAP1 POP JUMP JUMPDEST PUSH2 0x17BF DUP2 PUSH2 0x1D5F JUMP JUMPDEST DUP3 MSTORE POP POP JUMP JUMPDEST PUSH2 0x17CE DUP2 PUSH2 0x1D69 JUMP JUMPDEST DUP3 MSTORE POP POP JUMP JUMPDEST PUSH1 0x0 PUSH2 0x17E0 DUP3 DUP6 PUSH2 0x1609 JUMP JUMPDEST SWAP2 POP PUSH2 0x17EC DUP3 DUP5 PUSH2 0x15F2 JUMP JUMPDEST PUSH1 0x20 DUP3 ADD SWAP2 POP DUP2 SWAP1 POP SWAP4 SWAP3 POP POP POP JUMP JUMPDEST PUSH1 0x0 PUSH1 0x20 DUP3 ADD SWAP1 POP PUSH2 0x1811 PUSH1 0x0 DUP4 ADD DUP5 PUSH2 0x15D4 JUMP JUMPDEST SWAP3 SWAP2 POP POP JUMP JUMPDEST PUSH1 0x0 PUSH1 0x20 DUP3 ADD SWAP1 POP PUSH2 0x182C PUSH1 0x0 DUP4 ADD DUP5 PUSH2 0x15E3 JUMP JUMPDEST SWAP3 SWAP2 POP POP JUMP JUMPDEST PUSH1 0x0 PUSH1 0x80 DUP3 ADD SWAP1 POP PUSH2 0x1847 PUSH1 0x0 DUP4 ADD DUP8 PUSH2 0x15E3 JUMP JUMPDEST PUSH2 0x1854 PUSH1 0x20 DUP4 ADD DUP7 PUSH2 0x17C5 JUMP JUMPDEST PUSH2 0x1861 PUSH1 0x40 DUP4 ADD DUP6 PUSH2 0x15E3 JUMP JUMPDEST PUSH2 0x186E PUSH1 0x60 DUP4 ADD DUP5 PUSH2 0x15E3 JUMP JUMPDEST SWAP6 SWAP5 POP POP POP POP POP JUMP JUMPDEST PUSH1 0x0 PUSH1 0x20 DUP3 ADD SWAP1 POP PUSH2 0x188C PUSH1 0x0 DUP4 ADD DUP5 PUSH2 0x1649 JUMP JUMPDEST SWAP3 SWAP2 POP POP JUMP JUMPDEST PUSH1 0x0 PUSH1 0x20 DUP3 ADD SWAP1 POP DUP2 DUP2 SUB PUSH1 0x0 DUP4 ADD MSTORE PUSH2 0x18AB DUP2 PUSH2 0x1658 JUMP JUMPDEST SWAP1 POP SWAP2 SWAP1 POP JUMP JUMPDEST PUSH1 0x0 PUSH1 0x20 DUP3 ADD SWAP1 POP DUP2 DUP2 SUB PUSH1 0x0 DUP4 ADD MSTORE PUSH2 0x18CB DUP2 PUSH2 0x167B JUMP JUMPDEST SWAP1 POP SWAP2 SWAP1 POP JUMP JUMPDEST PUSH1 0x0 PUSH1 0x20 DUP3 ADD SWAP1 POP DUP2 DUP2 SUB PUSH1 0x0 DUP4 ADD MSTORE PUSH2 0x18EB DUP2 PUSH2 0x169E JUMP JUMPDEST SWAP1 POP SWAP2 SWAP1 POP JUMP JUMPDEST PUSH1 0x0 PUSH1 0x20 DUP3 ADD SWAP1 POP DUP2 DUP2 SUB PUSH1 0x0 DUP4 ADD MSTORE PUSH2 0x190B DUP2 PUSH2 0x16C1 JUMP JUMPDEST SWAP1 POP SWAP2 SWAP1 POP JUMP JUMPDEST PUSH1 0x0 PUSH1 0x20 DUP3 ADD SWAP1 POP DUP2 DUP2 SUB PUSH1 0x0 DUP4 ADD MSTORE PUSH2 0x192B DUP2 PUSH2 0x16E4 JUMP JUMPDEST SWAP1 POP SWAP2 SWAP1 POP JUMP JUMPDEST PUSH1 0x0 PUSH1 0x20 DUP3 ADD SWAP1 POP DUP2 DUP2 SUB PUSH1 0x0 DUP4 ADD MSTORE PUSH2 0x194B DUP2 PUSH2 0x1707 JUMP JUMPDEST SWAP1 POP SWAP2 SWAP1 POP JUMP JUMPDEST PUSH1 0x0 PUSH1 0x20 DUP3 ADD SWAP1 POP DUP2 DUP2 SUB PUSH1 0x0 DUP4 ADD MSTORE PUSH2 0x196B DUP2 PUSH2 0x172A JUMP JUMPDEST SWAP1 POP SWAP2 SWAP1 POP JUMP JUMPDEST PUSH1 0x0 PUSH1 0x20 DUP3 ADD SWAP1 POP DUP2 DUP2 SUB PUSH1 0x0 DUP4 ADD MSTORE PUSH2 0x198B DUP2 PUSH2 0x174D JUMP JUMPDEST SWAP1 POP SWAP2 SWAP1 POP JUMP JUMPDEST PUSH1 0x0 PUSH1 0x20 DUP3 ADD SWAP1 POP DUP2 DUP2 SUB PUSH1 0x0 DUP4 ADD MSTORE PUSH2 0x19AB DUP2 PUSH2 0x1770 JUMP JUMPDEST SWAP1 POP SWAP2 SWAP1 POP JUMP JUMPDEST PUSH1 0x0 PUSH1 0x20 DUP3 ADD SWAP1 POP DUP2 DUP2 SUB PUSH1 0x0 DUP4 ADD MSTORE PUSH2 0x19CB DUP2 PUSH2 0x1793 JUMP JUMPDEST SWAP1 POP SWAP2 SWAP1 POP JUMP JUMPDEST PUSH1 0x0 PUSH1 0x20 DUP3 ADD SWAP1 POP PUSH2 0x19E7 PUSH1 0x0 DUP4 ADD DUP5 PUSH2 0x17B6 JUMP JUMPDEST SWAP3 SWAP2 POP POP JUMP JUMPDEST PUSH1 0x0 PUSH1 0xE0 DUP3 ADD SWAP1 POP PUSH2 0x1A02 PUSH1 0x0 DUP4 ADD DUP11 PUSH2 0x17B6 JUMP JUMPDEST PUSH2 0x1A0F PUSH1 0x20 DUP4 ADD DUP10 PUSH2 0x15C5 JUMP JUMPDEST PUSH2 0x1A1C PUSH1 0x40 DUP4 ADD DUP9 PUSH2 0x17B6 JUMP JUMPDEST PUSH2 0x1A29 PUSH1 0x60 DUP4 ADD DUP8 PUSH2 0x17B6 JUMP JUMPDEST PUSH2 0x1A36 PUSH1 0x80 DUP4 ADD DUP7 PUSH2 0x17B6 JUMP JUMPDEST PUSH2 0x1A43 PUSH1 0xA0 DUP4 ADD DUP6 PUSH2 0x17B6 JUMP JUMPDEST PUSH2 0x1A50 PUSH1 0xC0 DUP4 ADD DUP5 PUSH2 0x163A JUMP JUMPDEST SWAP9 SWAP8 POP POP POP POP POP POP POP POP JUMP JUMPDEST PUSH1 0x0 PUSH1 0x60 DUP3 ADD SWAP1 POP PUSH2 0x1A71 PUSH1 0x0 DUP4 ADD DUP7 PUSH2 0x17B6 JUMP JUMPDEST PUSH2 0x1A7E PUSH1 0x20 DUP4 ADD DUP6 PUSH2 0x17B6 JUMP JUMPDEST PUSH2 0x1A8B PUSH1 0x40 DUP4 ADD DUP5 PUSH2 0x15E3 JUMP JUMPDEST SWAP5 SWAP4 POP POP POP POP JUMP JUMPDEST PUSH1 0x0 PUSH1 0xA0 DUP3 ADD SWAP1 POP PUSH2 0x1AA8 PUSH1 0x0 DUP4 ADD DUP9 PUSH2 0x17B6 JUMP JUMPDEST PUSH2 0x1AB5 PUSH1 0x20 DUP4 ADD DUP8 PUSH2 0x17B6 JUMP JUMPDEST PUSH2 0x1AC2 PUSH1 0x40 DUP4 ADD DUP7 PUSH2 0x17B6 JUMP JUMPDEST PUSH2 0x1ACF PUSH1 0x60 DUP4 ADD DUP6 PUSH2 0x17B6 JUMP JUMPDEST PUSH2 0x1ADC PUSH1 0x80 DUP4 ADD DUP5 PUSH2 0x163A JUMP JUMPDEST SWAP7 SWAP6 POP POP POP POP POP POP JUMP JUMPDEST PUSH1 0x0 DUP2 MLOAD SWAP1 POP SWAP2 SWAP1 POP JUMP JUMPDEST PUSH1 0x0 DUP2 SWAP1 POP SWAP3 SWAP2 POP POP JUMP JUMPDEST PUSH1 0x0 DUP3 DUP3 MSTORE PUSH1 0x20 DUP3 ADD SWAP1 POP SWAP3 SWAP2 POP POP JUMP JUMPDEST PUSH1 0x0 PUSH2 0x1B18 DUP3 PUSH2 0x1D35 JUMP JUMPDEST SWAP2 POP PUSH2 0x1B23 DUP4 PUSH2 0x1D35 JUMP JUMPDEST SWAP3 POP DUP2 PUSH32 0x7FFFFFFFFFFFFFFFFFFFFFFFFFFFFFFFFFFFFFFFFFFFFFFFFFFFFFFFFFFFFFFF SUB DUP4 SGT PUSH1 0x0 DUP4 SLT ISZERO AND ISZERO PUSH2 0x1B5E JUMPI PUSH2 0x1B5D PUSH2 0x1E3F JUMP JUMPDEST JUMPDEST DUP2 PUSH32 0x8000000000000000000000000000000000000000000000000000000000000000 SUB DUP4 SLT PUSH1 0x0 DUP4 SLT AND ISZERO PUSH2 0x1B96 JUMPI PUSH2 0x1B95 PUSH2 0x1E3F JUMP JUMPDEST JUMPDEST DUP3 DUP3 ADD SWAP1 POP SWAP3 SWAP2 POP POP JUMP JUMPDEST PUSH1 0x0 PUSH2 0x1BAC DUP3 PUSH2 0x1D5F JUMP JUMPDEST SWAP2 POP PUSH2 0x1BB7 DUP4 PUSH2 0x1D5F JUMP JUMPDEST SWAP3 POP DUP3 PUSH2 0x1BC7 JUMPI PUSH2 0x1BC6 PUSH2 0x1E6E JUMP JUMPDEST JUMPDEST DUP3 DUP3 DIV SWAP1 POP SWAP3 SWAP2 POP POP JUMP JUMPDEST PUSH1 0x0 PUSH2 0x1BDD DUP3 PUSH2 0x1D5F JUMP JUMPDEST SWAP2 POP PUSH2 0x1BE8 DUP4 PUSH2 0x1D5F JUMP JUMPDEST SWAP3 POP DUP2 PUSH32 0xFFFFFFFFFFFFFFFFFFFFFFFFFFFFFFFFFFFFFFFFFFFFFFFFFFFFFFFFFFFFFFFF DIV DUP4 GT DUP3 ISZERO ISZERO AND ISZERO PUSH2 0x1C21 JUMPI PUSH2 0x1C20 PUSH2 0x1E3F JUMP JUMPDEST JUMPDEST DUP3 DUP3 MUL SWAP1 POP SWAP3 SWAP2 POP POP JUMP JUMPDEST PUSH1 0x0 PUSH2 0x1C37 DUP3 PUSH2 0x1D35 JUMP JUMPDEST SWAP2 POP PUSH2 0x1C42 DUP4 PUSH2 0x1D35 JUMP JUMPDEST SWAP3 POP DUP3 PUSH32 0x8000000000000000000000000000000000000000000000000000000000000000 ADD DUP3 SLT PUSH1 0x0 DUP5 SLT ISZERO AND ISZERO PUSH2 0x1C7D JUMPI PUSH2 0x1C7C PUSH2 0x1E3F JUMP JUMPDEST JUMPDEST DUP3 PUSH32 0x7FFFFFFFFFFFFFFFFFFFFFFFFFFFFFFFFFFFFFFFFFFFFFFFFFFFFFFFFFFFFFFF ADD DUP3 SGT PUSH1 0x0 DUP5 SLT AND ISZERO PUSH2 0x1CB5 JUMPI PUSH2 0x1CB4 PUSH2 0x1E3F JUMP JUMPDEST JUMPDEST DUP3 DUP3 SUB SWAP1 POP SWAP3 SWAP2 POP POP JUMP JUMPDEST PUSH1 0x0 PUSH2 0x1CCB DUP3 PUSH2 0x1D5F JUMP JUMPDEST SWAP2 POP PUSH2 0x1CD6 DUP4 PUSH2 0x1D5F JUMP JUMPDEST SWAP3 POP DUP3 DUP3 LT ISZERO PUSH2 0x1CE9 JUMPI PUSH2 0x1CE8 PUSH2 0x1E3F JUMP JUMPDEST JUMPDEST DUP3 DUP3 SUB SWAP1 POP SWAP3 SWAP2 POP POP JUMP JUMPDEST PUSH1 0x0 PUSH2 0x1CFF DUP3 PUSH2 0x1D3F JUMP JUMPDEST SWAP1 POP SWAP2 SWAP1 POP JUMP JUMPDEST PUSH1 0x0 PUSH2 0x1D11 DUP3 PUSH2 0x1D3F JUMP JUMPDEST SWAP1 POP SWAP2 SWAP1 POP JUMP JUMPDEST PUSH1 0x0 DUP2 SWAP1 POP SWAP2 SWAP1 POP JUMP JUMPDEST PUSH1 0x0 DUP2 SWAP1 POP PUSH2 0x1D30 DUP3 PUSH2 0x2129 JUMP JUMPDEST SWAP2 SWAP1 POP JUMP JUMPDEST PUSH1 0x0 DUP2 SWAP1 POP SWAP2 SWAP1 POP JUMP JUMPDEST PUSH1 0x0 PUSH20 0xFFFFFFFFFFFFFFFFFFFFFFFFFFFFFFFFFFFFFFFF DUP3 AND SWAP1 POP SWAP2 SWAP1 POP JUMP JUMPDEST PUSH1 0x0 DUP2 SWAP1 POP SWAP2 SWAP1 POP JUMP JUMPDEST PUSH1 0x0 PUSH1 0xFF DUP3 AND SWAP1 POP SWAP2 SWAP1 POP JUMP JUMPDEST PUSH1 0x0 PUSH2 0x1D81 DUP3 PUSH2 0x1D22 JUMP JUMPDEST SWAP1 POP SWAP2 SWAP1 POP JUMP JUMPDEST PUSH1 0x0 JUMPDEST DUP4 DUP2 LT ISZERO PUSH2 0x1DA6 JUMPI DUP1 DUP3 ADD MLOAD DUP2 DUP5 ADD MSTORE PUSH1 0x20 DUP2 ADD SWAP1 POP PUSH2 0x1D8B JUMP JUMPDEST DUP4 DUP2 GT ISZERO PUSH2 0x1DB5 JUMPI PUSH1 0x0 DUP5 DUP5 ADD MSTORE JUMPDEST POP POP POP POP JUMP JUMPDEST PUSH1 0x0 PUSH2 0x1DC6 DUP3 PUSH2 0x1D5F JUMP JUMPDEST SWAP2 POP PUSH32 0xFFFFFFFFFFFFFFFFFFFFFFFFFFFFFFFFFFFFFFFFFFFFFFFFFFFFFFFFFFFFFFFF DUP3 EQ ISZERO PUSH2 0x1DF9 JUMPI PUSH2 0x1DF8 PUSH2 0x1E3F JUMP JUMPDEST JUMPDEST PUSH1 0x1 DUP3 ADD SWAP1 POP SWAP2 SWAP1 POP JUMP JUMPDEST PUSH1 0x0 DUP2 SWAP1 POP SWAP2 SWAP1 POP JUMP JUMPDEST PUSH1 0x0 PUSH2 0x1E19 DUP3 PUSH2 0x1D5F JUMP JUMPDEST SWAP2 POP PUSH2 0x1E24 DUP4 PUSH2 0x1D5F JUMP JUMPDEST SWAP3 POP DUP3 PUSH2 0x1E34 JUMPI PUSH2 0x1E33 PUSH2 0x1E6E JUMP JUMPDEST JUMPDEST DUP3 DUP3 MOD SWAP1 POP SWAP3 SWAP2 POP POP JUMP JUMPDEST PUSH32 0x4E487B7100000000000000000000000000000000000000000000000000000000 PUSH1 0x0 MSTORE PUSH1 0x11 PUSH1 0x4 MSTORE PUSH1 0x24 PUSH1 0x0 REVERT JUMPDEST PUSH32 0x4E487B7100000000000000000000000000000000000000000000000000000000 PUSH1 0x0 MSTORE PUSH1 0x12 PUSH1 0x4 MSTORE PUSH1 0x24 PUSH1 0x0 REVERT JUMPDEST PUSH32 0x4E487B7100000000000000000000000000000000000000000000000000000000 PUSH1 0x0 MSTORE PUSH1 0x21 PUSH1 0x4 MSTORE PUSH1 0x24 PUSH1 0x0 REVERT JUMPDEST PUSH1 0x0 DUP1 REVERT JUMPDEST PUSH32 0x52617465206973206E6F74206265747765656E206D696E20616E64206D617820 PUSH1 0x0 DUP3 ADD MSTORE PUSH32 0x6265740000000000000000000000000000000000000000000000000000000000 PUSH1 0x20 DUP3 ADD MSTORE POP JUMP JUMPDEST PUSH32 0x4F776E61626C653A206E6577206F776E657220697320746865207A65726F2061 PUSH1 0x0 DUP3 ADD MSTORE PUSH32 0x6464726573730000000000000000000000000000000000000000000000000000 PUSH1 0x20 DUP3 ADD MSTORE POP JUMP JUMPDEST PUSH32 0x496E76616C6964207369676E6174757265000000000000000000000000000000 PUSH1 0x0 DUP3 ADD MSTORE POP JUMP JUMPDEST PUSH32 0x43686F6963652073686F756C642062652030206F722031000000000000000000 PUSH1 0x0 DUP3 ADD MSTORE POP JUMP JUMPDEST PUSH32 0x47616D6520616C726561647920706C6179656400000000000000000000000000 PUSH1 0x0 DUP3 ADD MSTORE POP JUMP JUMPDEST PUSH32 0x4F776E61626C653A2063616C6C6572206973206E6F7420746865206F776E6572 PUSH1 0x0 DUP3 ADD MSTORE POP JUMP JUMPDEST PUSH32 0x4F6E6C79207468652063726F75706965722063616E2072756E20746869732066 PUSH1 0x0 DUP3 ADD MSTORE PUSH32 0x756E6374696F6E2E000000000000000000000000000000000000000000000000 PUSH1 0x20 DUP3 ADD MSTORE POP JUMP JUMPDEST PUSH32 0x496E737566666963656E742066756E6473206F6E20636F6E747261637420746F PUSH1 0x0 DUP3 ADD MSTORE PUSH32 0x20636F7665722074686520626574000000000000000000000000000000000000 PUSH1 0x20 DUP3 ADD MSTORE POP JUMP JUMPDEST PUSH32 0x5365656420616C72656164792075736564000000000000000000000000000000 PUSH1 0x0 DUP3 ADD MSTORE POP JUMP JUMPDEST PUSH32 0x4F6E6C79207468652070726F6669742074616B65722063616E2072756E207468 PUSH1 0x0 DUP3 ADD MSTORE PUSH32 0x69732066756E6374696F6E2E0000000000000000000000000000000000000000 PUSH1 0x20 DUP3 ADD MSTORE POP JUMP JUMPDEST PUSH1 0x3 DUP2 LT PUSH2 0x213A JUMPI PUSH2 0x2139 PUSH2 0x1E9D JUMP JUMPDEST JUMPDEST POP JUMP JUMPDEST PUSH2 0x2146 DUP2 PUSH2 0x1CF4 JUMP JUMPDEST DUP2 EQ PUSH2 0x2151 JUMPI PUSH1 0x0 DUP1 REVERT JUMPDEST POP JUMP JUMPDEST PUSH2 0x215D DUP2 PUSH2 0x1D18 JUMP JUMPDEST DUP2 EQ PUSH2 0x2168 JUMPI PUSH1 0x0 DUP1 REVERT JUMPDEST POP JUMP JUMPDEST PUSH2 0x2174 DUP2 PUSH2 0x1D5F JUMP JUMPDEST DUP2 EQ PUSH2 0x217F JUMPI PUSH1 0x0 DUP1 REVERT JUMPDEST POP JUMP JUMPDEST PUSH2 0x218B DUP2 PUSH2 0x1D69 JUMP JUMPDEST DUP2 EQ PUSH2 0x2196 JUMPI PUSH1 0x0 DUP1 REVERT JUMPDEST POP JUMP INVALID LOG2 PUSH5 0x6970667358 0x22 SLT KECCAK256 0xA9 PUSH19 0x5CC9F6AFE5B045C27D66CDA22B21807898F5D5 CALLDATALOAD DUP9 CODECOPY SLT SWAP16 ISZERO DIV PUSH19 0x29806C64736F6C634300080600330000000000 "
        },
        "gasEstimates": {
          "creation": {
            "codeDepositCost": "1731000",
            "executionCost": "infinite",
            "totalCost": "infinite"
          },
          "external": {
            "": "246",
            "WIN_COEFFICIENT()": "2539",
            "confirm(bytes32,uint8,bytes32,bytes32)": "infinite",
            "croupier()": "2537",
            "games(bytes32)": "infinite",
            "houseProfitEther()": "2540",
            "listGames(uint256)": "4994",
            "maxEtherBet()": "2497",
            "minEtherBet()": "2453",
            "owner()": "2545",
            "play(uint256,bytes32)": "infinite",
            "profitTaker()": "2604",
            "renounceOwnership()": "30441",
            "setBetRange(uint256,uint256)": "infinite",
            "setCroupier(address)": "27050",
            "setProfitTaker(address)": "27051",
            "setWinCoefficient(uint256)": "infinite",
            "takeProfit()": "infinite",
            "totalGamesCount()": "2495",
            "transferOwnership(address)": "30745",
            "withdraw()": "infinite"
          }
        },
        "methodIdentifiers": {
          "WIN_COEFFICIENT()": "f957eff2",
          "confirm(bytes32,uint8,bytes32,bytes32)": "b00606a5",
          "croupier()": "6b5c5f39",
          "games(bytes32)": "f579f882",
          "houseProfitEther()": "8bc4aab2",
          "listGames(uint256)": "65fe09d7",
          "maxEtherBet()": "5b49637e",
          "minEtherBet()": "22728b11",
          "owner()": "8da5cb5b",
          "play(uint256,bytes32)": "bf4bd002",
          "profitTaker()": "5c6c0939",
          "renounceOwnership()": "715018a6",
          "setBetRange(uint256,uint256)": "abae5050",
          "setCroupier(address)": "f8bb201c",
          "setProfitTaker(address)": "72215373",
          "setWinCoefficient(uint256)": "90e50774",
          "takeProfit()": "70c10578",
          "totalGamesCount()": "f593a387",
          "transferOwnership(address)": "f2fde38b",
          "withdraw()": "3ccfd60b"
        }
      },
      "storageLayout": {
        "storage": [
          {
            "astId": 7,
            "contract": "contracts/CoinFlip.sol:CoinFlip",
            "label": "_owner",
            "offset": 0,
            "slot": "0",
            "type": "t_address"
          },
          {
            "astId": 152,
            "contract": "contracts/CoinFlip.sol:CoinFlip",
            "label": "totalGamesCount",
            "offset": 0,
            "slot": "1",
            "type": "t_uint256"
          },
          {
            "astId": 156,
            "contract": "contracts/CoinFlip.sol:CoinFlip",
            "label": "WIN_COEFFICIENT",
            "offset": 0,
            "slot": "2",
            "type": "t_uint256"
          },
          {
            "astId": 160,
            "contract": "contracts/CoinFlip.sol:CoinFlip",
            "label": "minEtherBet",
            "offset": 0,
            "slot": "3",
            "type": "t_uint256"
          },
          {
            "astId": 164,
            "contract": "contracts/CoinFlip.sol:CoinFlip",
            "label": "maxEtherBet",
            "offset": 0,
            "slot": "4",
            "type": "t_uint256"
          },
          {
            "astId": 167,
            "contract": "contracts/CoinFlip.sol:CoinFlip",
            "label": "houseProfitEther",
            "offset": 0,
            "slot": "5",
            "type": "t_int256"
          },
          {
            "astId": 170,
            "contract": "contracts/CoinFlip.sol:CoinFlip",
            "label": "croupier",
            "offset": 0,
            "slot": "6",
            "type": "t_address"
          },
          {
            "astId": 173,
            "contract": "contracts/CoinFlip.sol:CoinFlip",
            "label": "profitTaker",
            "offset": 0,
            "slot": "7",
            "type": "t_address"
          },
          {
            "astId": 179,
            "contract": "contracts/CoinFlip.sol:CoinFlip",
            "label": "games",
            "offset": 0,
            "slot": "8",
            "type": "t_mapping(t_bytes32,t_struct(Game)145_storage)"
          },
          {
            "astId": 183,
            "contract": "contracts/CoinFlip.sol:CoinFlip",
            "label": "listGames",
            "offset": 0,
            "slot": "9",
            "type": "t_array(t_bytes32)dyn_storage"
          }
        ],
        "types": {
          "t_address": {
            "encoding": "inplace",
            "label": "address",
            "numberOfBytes": "20"
          },
          "t_address_payable": {
            "encoding": "inplace",
            "label": "address payable",
            "numberOfBytes": "20"
          },
          "t_array(t_bytes32)dyn_storage": {
            "base": "t_bytes32",
            "encoding": "dynamic_array",
            "label": "bytes32[]",
            "numberOfBytes": "32"
          },
          "t_bytes32": {
            "encoding": "inplace",
            "label": "bytes32",
            "numberOfBytes": "32"
          },
          "t_enum(GameState)149": {
            "encoding": "inplace",
            "label": "enum CoinFlip.GameState",
            "numberOfBytes": "1"
          },
          "t_int256": {
            "encoding": "inplace",
            "label": "int256",
            "numberOfBytes": "32"
          },
          "t_mapping(t_bytes32,t_struct(Game)145_storage)": {
            "encoding": "mapping",
            "key": "t_bytes32",
            "label": "mapping(bytes32 => struct CoinFlip.Game)",
            "numberOfBytes": "32",
            "value": "t_struct(Game)145_storage"
          },
          "t_struct(Game)145_storage": {
            "encoding": "inplace",
            "label": "struct CoinFlip.Game",
            "members": [
              {
                "astId": 131,
                "contract": "contracts/CoinFlip.sol:CoinFlip",
                "label": "id",
                "offset": 0,
                "slot": "0",
                "type": "t_uint256"
              },
              {
                "astId": 133,
                "contract": "contracts/CoinFlip.sol:CoinFlip",
                "label": "player",
                "offset": 0,
                "slot": "1",
                "type": "t_address_payable"
              },
              {
                "astId": 135,
                "contract": "contracts/CoinFlip.sol:CoinFlip",
                "label": "bet",
                "offset": 0,
                "slot": "2",
                "type": "t_uint256"
              },
              {
                "astId": 137,
                "contract": "contracts/CoinFlip.sol:CoinFlip",
                "label": "prize",
                "offset": 0,
                "slot": "3",
                "type": "t_uint256"
              },
              {
                "astId": 139,
                "contract": "contracts/CoinFlip.sol:CoinFlip",
                "label": "choice",
                "offset": 0,
                "slot": "4",
                "type": "t_uint256"
              },
              {
                "astId": 141,
                "contract": "contracts/CoinFlip.sol:CoinFlip",
                "label": "result",
                "offset": 0,
                "slot": "5",
                "type": "t_uint256"
              },
              {
                "astId": 144,
                "contract": "contracts/CoinFlip.sol:CoinFlip",
                "label": "state",
                "offset": 0,
                "slot": "6",
                "type": "t_enum(GameState)149"
              }
            ],
            "numberOfBytes": "224"
          },
          "t_uint256": {
            "encoding": "inplace",
            "label": "uint256",
            "numberOfBytes": "32"
          }
        }
      },
      "userdoc": {
        "kind": "user",
        "methods": {
          "WIN_COEFFICIENT()": {
            "notice": "Coefficient for win. x / 100"
          },
          "confirm(bytes32,uint8,bytes32,bytes32)": {
            "notice": "Confirm the game, with seed"
          },
          "croupier()": {
            "notice": "Croupier"
          },
          "games(bytes32)": {
            "notice": "Info of each game"
          },
          "houseProfitEther()": {
            "notice": "Profit from bets"
          },
          "listGames(uint256)": {
            "notice": "Games seeds"
          },
          "maxEtherBet()": {
            "notice": "Maximal amount for bet"
          },
          "minEtherBet()": {
            "notice": "Minimal amount for bet"
          },
          "play(uint256,bytes32)": {
            "notice": "Add new game"
          },
          "profitTaker()": {
            "notice": "Person how will receive houseProfitEther"
          },
          "setBetRange(uint256,uint256)": {
            "notice": "Set new minEtherBet and maxEtherBet"
          },
          "setCroupier(address)": {
            "notice": "Set new croupier"
          },
          "setProfitTaker(address)": {
            "notice": "Set new profitTaker"
          },
          "setWinCoefficient(uint256)": {
            "notice": "Set new WIN_COEFFICIENT    "
          },
          "takeProfit()": {
            "notice": "sends houseProfitEther to profitTaker"
          },
          "totalGamesCount()": {
            "notice": "Number of all games"
          },
          "withdraw()": {
            "notice": "sends contract's excessive balance to owner"
          }
        },
        "version": 1
      }
    }
  }
}